{
	"contractName": "OptimizerTrade",
	"abi": [
		{
			"inputs": [
				{
					"internalType": "address",
					"name": "uniswapFactory",
					"type": "address"
				},
				{
					"internalType": "address payable",
					"name": "exec",
					"type": "address"
				}
			],
			"stateMutability": "payable",
			"type": "constructor",
			"payable": true
		},
		{
			"anonymous": false,
			"inputs": [
				{
					"indexed": false,
					"internalType": "string",
					"name": "reason",
					"type": "string"
				}
			],
			"name": "ErrorHandled",
			"type": "event"
		},
		{
			"anonymous": false,
			"inputs": [
				{
					"indexed": false,
					"internalType": "address",
					"name": "token1",
					"type": "address"
				},
				{
					"indexed": false,
					"internalType": "address",
					"name": "token2",
					"type": "address"
				},
				{
					"indexed": false,
					"internalType": "uint256",
					"name": "inputWei",
					"type": "uint256"
				},
				{
					"indexed": false,
					"internalType": "uint256",
					"name": "innerWei",
					"type": "uint256"
				},
				{
					"indexed": false,
					"internalType": "uint256",
					"name": "outputWei",
					"type": "uint256"
				},
				{
					"indexed": false,
					"internalType": "uint256",
					"name": "diff",
					"type": "uint256"
				}
			],
			"name": "simpleOppEvent",
			"type": "event"
		},
		{
			"anonymous": false,
			"inputs": [
				{
					"indexed": false,
					"internalType": "address",
					"name": "token1",
					"type": "address"
				},
				{
					"indexed": false,
					"internalType": "address",
					"name": "token2",
					"type": "address"
				},
				{
					"indexed": false,
					"internalType": "address",
					"name": "token3",
					"type": "address"
				},
				{
					"indexed": false,
					"internalType": "uint256",
					"name": "input1",
					"type": "uint256"
				},
				{
					"indexed": false,
					"internalType": "uint256",
					"name": "output1",
					"type": "uint256"
				},
				{
					"indexed": false,
					"internalType": "uint256",
					"name": "output2",
					"type": "uint256"
				},
				{
					"indexed": false,
					"internalType": "uint256",
					"name": "output3",
					"type": "uint256"
				},
				{
					"indexed": false,
					"internalType": "uint256",
					"name": "diff",
					"type": "uint256"
				}
			],
			"name": "triOppEvent",
			"type": "event"
		},
		{
			"stateMutability": "payable",
			"type": "fallback",
			"payable": true
		},
		{
			"inputs": [],
			"name": "owner",
			"outputs": [
				{
					"internalType": "address payable",
					"name": "",
					"type": "address"
				}
			],
			"stateMutability": "view",
			"type": "function",
			"constant": true
		},
		{
			"stateMutability": "payable",
			"type": "receive",
			"payable": true
		},
		{
			"inputs": [],
			"name": "withdrawEth",
			"outputs": [],
			"stateMutability": "nonpayable",
			"type": "function"
		},
		{
			"inputs": [
				{
					"internalType": "address",
					"name": "token",
					"type": "address"
				}
			],
			"name": "withdrawErc20",
			"outputs": [],
			"stateMutability": "nonpayable",
			"type": "function"
		},
		{
			"inputs": [
				{
					"internalType": "address payable",
					"name": "newOwner",
					"type": "address"
				}
			],
			"name": "changeOwner",
			"outputs": [],
			"stateMutability": "nonpayable",
			"type": "function"
		},
		{
			"inputs": [
				{
					"internalType": "address",
					"name": "newAddress",
					"type": "address"
				}
			],
			"name": "changeUniswapFactory",
			"outputs": [],
			"stateMutability": "nonpayable",
			"type": "function"
		},
		{
			"inputs": [
				{
					"internalType": "bytes[]",
					"name": "calls",
					"type": "bytes[]"
				}
			],
			"name": "simpleMulticall",
			"outputs": [],
			"stateMutability": "nonpayable",
			"type": "function"
		}
	],
	"bytecode": "0x60806040526040516200331738038062003317833981016040819052620000269162000612565b600280546001600160a01b038084166001600160a01b031992831617909255600080549285169282169290921782556001805490911633179055620000a7906200007f9062000493620000ca602090811b91909117901c565b620000966001620000ca60201b620004931760201c565b6200013760201b620005001760201c565b600380546001600160801b03191660809290921c91909117905550620006699050565b600081620000db5750600062000132565b816000620000e98262000154565b9050607081101562000104578060700382901b915062000118565b607081111562000118576070810382901c91505b613fff0160701b6001600160701b03919091161760801b90505b919050565b60006200014b83600160ff1b841862000200565b90505b92915050565b60008082116200016357600080fd5b6000600160801b83106200017957608092831c92015b6801000000000000000083106200019257604092831c92015b6401000000008310620001a757602092831c92015b620100008310620001ba57601092831c92015b6101008310620001cc57600892831c92015b60108310620001dd57600492831c92015b60048310620001ee57600292831c92015b600283106200014e5760010192915050565b6000617fff60f084811c8216919084901c811690821415620002645780617fff141562000259576001600160801b03198581169085161415620002485784925050506200014e565b5061ffff60ef1b91506200014e9050565b84925050506200014e565b80617fff14156200027a5783925050506200014e565b6001607f1b608086901c90811015906001600160701b031683620002a25760019350620002a9565b600160701b175b6001607f1b608087901c90811015906001600160701b031684620002d15760019450620002d8565b600160701b175b826200030c576001600160801b03198816600160ff1b14620002fb5787620002fe565b60005b96505050505050506200014e565b806200032f576001600160801b03198916600160ff1b14620002fb5788620002fe565b84860384151583151514156200044c5760708113156200035957899750505050505050506200014e565b60008113156200036d5790811c906200039f565b606f198112156200038857889750505050505050506200014e565b60008112156200039f578060000384901c93508596505b92810192600160711b8410620003bb576001968701969390931c925b86617fff1415620003f15784620003d857617fff60f01b620003e2565b6001600160f01b03195b9750505050505050506200014e565b600160701b84101562000408576000965062000415565b6001600160701b03841693505b83607088901b86620004295760006200042f565b6001607f1b5b6001600160801b0316171760801b9750505050505050506200014e565b60008113156200046957600184901b935060018703965062000481565b60008112156200048157600182901b91506001860396505b6070811315620004955760019150620004e7565b6001811315620004b4576001810360018303901c6001019150620004e7565b606f19811215620004c95760019350620004e7565b600019811215620004e7576001816000030360018503901c60010193505b818410620004fa57818403935062000503565b83820393508294505b836200051b5750600096506200014e95505050505050565b6000620005288562000154565b905080607114156200055057600185901c6001600160701b03169450600188019750620005a3565b6070811015620005965760708190038089111562000582578086901b6001600160701b0316955080890398506200058f565b600098600019019590951b945b50620005a3565b6001600160701b03851694505b87617fff1415620005da5785620005c057617fff60f01b620005ca565b6001600160f01b03195b985050505050505050506200014e565b84607089901b87620005ee576000620005f4565b6001607f1b5b6001600160801b0316171760801b985050505050505050506200014e565b6000806040838503121562000625578182fd5b8251620006328162000650565b6020840151909250620006458162000650565b809150509250929050565b6001600160a01b03811681146200066657600080fd5b50565b612c9e80620006796000396000f3fe6080604052600436106100695760003560e01c8063a6f9dae111610043578063a6f9dae1146100d2578063c7e42b1b146100f2578063e48ad60d1461011257610070565b806380caa605146100725780638da5cb5b14610092578063a0ef91df146100bd57610070565b3661007057005b005b34801561007e57600080fd5b5061007061008d366004612710565b610132565b34801561009e57600080fd5b506100a76101a5565b6040516100b49190612901565b60405180910390f35b3480156100c957600080fd5b506100706101b4565b3480156100de57600080fd5b506100706100ed3660046126d8565b61023d565b3480156100fe57600080fd5b5061007061010d3660046126d8565b6102bb565b34801561011e57600080fd5b5061007061012d3660046126d8565b610415565b60005b818110156101a05761019883838381811061014c57fe5b905060200281019061015e9190612b08565b8080601f01602080910402602001604051908101604052809392919081815260200183838082843760009201919091525061051b92505050565b600101610135565b505050565b6001546001600160a01b031681565b6001546001600160a01b03163314610201576040517f08c379a00000000000000000000000000000000000000000000000000000000081526004016101f890612abb565b60405180910390fd5b6001546040516001600160a01b03909116904780156108fc02916000818181858888f1935050505015801561023a573d6000803e3d6000fd5b50565b6001546001600160a01b03163314610281576040517f08c379a00000000000000000000000000000000000000000000000000000000081526004016101f890612abb565b600180547fffffffffffffffffffffffff0000000000000000000000000000000000000000166001600160a01b0392909216919091179055565b6001546001600160a01b031633146102ff576040517f08c379a00000000000000000000000000000000000000000000000000000000081526004016101f890612abb565b6001546040517f70a0823100000000000000000000000000000000000000000000000000000000815282916001600160a01b038084169263a9059cbb929091169083906370a0823190610356903090600401612901565b60206040518083038186803b15801561036e57600080fd5b505afa158015610382573d6000803e3d6000fd5b505050506040513d601f19601f820116820180604052508101906103a69190612880565b6040518363ffffffff1660e01b81526004016103c3929190612915565b602060405180830381600087803b1580156103dd57600080fd5b505af11580156103f1573d6000803e3d6000fd5b505050506040513d601f19601f820116820180604052508101906101a0919061277f565b6001546001600160a01b03163314610459576040517f08c379a00000000000000000000000000000000000000000000000000000000081526004016101f890612abb565b600080547fffffffffffffffffffffffff0000000000000000000000000000000000000000166001600160a01b0392909216919091179055565b6000816104a2575060006104fb565b8160006104ae826106fb565b905060708110156104c7578060700382901b91506104da565b60708111156104da576070810382901c91505b613fff0160701b6dffffffffffffffffffffffffffff919091161760801b90505b919050565b600061051283600160ff1b84186107ab565b90505b92915050565b6105236125a8565b81806020019051810190610537919061279f565b90506105416125dd565b61054a82610d54565b60e0810151909150156106e3577fb9b9d5083ab8550f4f9228ff80dd4853c7da58e0954e1253145f7c70d84a86088160000151826020015183608001518460a001518560c001518660e001516040516105a8969594939291906129a7565b60405180910390a160025481516020808401516040808601516060870151608088015160a089015160c08a015194516001600160a01b0390991698638788d08298610603989097968796959485949093909260009101612948565b6040516020818303038152906040526040518263ffffffff1660e01b815260040161062e91906129dd565b600060405180830381600087803b15801561064857600080fd5b505af1925050508015610659575060015b6106e357610665612b71565b8061067057506106ad565b7f4f17d5cf0427b4fe5e5649c407d3021315cfaa7216c9e58c369ef3937c40801a8160405161069f91906129dd565b60405180910390a1506106e3565b7f4f17d5cf0427b4fe5e5649c407d3021315cfaa7216c9e58c369ef3937c40801a6040516106da906129f0565b60405180910390a15b6106eb6125dd565b90506106f56125a8565b50505050565b600080821161070957600080fd5b6000700100000000000000000000000000000000831061072b57608092831c92015b68010000000000000000831061074357604092831c92015b640100000000831061075757602092831c92015b62010000831061076957601092831c92015b610100831061077a57600892831c92015b6010831061078a57600492831c92015b6004831061079a57600292831c92015b600283106105155760010192915050565b6000617fff60f084811c8216919084901c81169082141561083c5780617fff1415610832577fffffffffffffffffffffffffffffffff000000000000000000000000000000008581169085161415610807578492505050610515565b507f7fff80000000000000000000000000000000000000000000000000000000000091506105159050565b8492505050610515565b80617fff1415610850578392505050610515565b6f80000000000000000000000000000000608086901c90811015906dffffffffffffffffffffffffffff1683610889576001935061089b565b6e010000000000000000000000000000175b6f80000000000000000000000000000000608087901c90811015906dffffffffffffffffffffffffffff16846108d457600194506108e6565b6e010000000000000000000000000000175b8261092e577fffffffffffffffffffffffffffffffff000000000000000000000000000000008816600160ff1b1461091e5787610921565b60005b9650505050505050610515565b80610966577fffffffffffffffffffffffffffffffff000000000000000000000000000000008916600160ff1b1461091e5788610921565b8486038415158315151415610af457607081131561098d5789975050505050505050610515565b600081131561099f5790811c906109ec565b7fffffffffffffffffffffffffffffffffffffffffffffffffffffffffffffff908112156109d65788975050505050505050610515565b60008112156109ec578060000384901c93508596505b928101926e0200000000000000000000000000008410610a12576001968701969390931c925b86617fff1415610a775784610a47577f7fff000000000000000000000000000000000000000000000000000000000000610a69565b7fffff0000000000000000000000000000000000000000000000000000000000005b975050505050505050610515565b6e010000000000000000000000000000841015610a975760009650610aab565b6dffffffffffffffffffffffffffff841693505b83607088901b86610abd576000610acf565b6f800000000000000000000000000000005b6fffffffffffffffffffffffffffffffff16171760801b975050505050505050610515565b6000811315610b0f57600184901b9350600187039650610b26565b6000811215610b2657600182901b91506001860396505b6070811315610b385760019150610bc1565b6001811315610b55576001810360018303901c6001019150610bc1565b7fffffffffffffffffffffffffffffffffffffffffffffffffffffffffffffff90811215610b865760019350610bc1565b7fffffffffffffffffffffffffffffffffffffffffffffffffffffffffffffffff811215610bc1576001816000030360018503901c60010193505b818410610bd2578184039350610bdb565b83820393508294505b83610bf157506000965061051595505050505050565b6000610bfc856106fb565b90508060711415610c2957600185901c6dffffffffffffffffffffffffffff169450600188019750610ca4565b6070811015610c9057607081900380891115610c5f578086901b6dffffffffffffffffffffffffffff1695508089039850610c8a565b6000987fffffffffffffffffffffffffffffffffffffffffffffffffffffffffffffffff019590951b945b50610ca4565b6dffffffffffffffffffffffffffff851694505b87617fff1415610d0a5785610cd9577f7fff000000000000000000000000000000000000000000000000000000000000610cfb565b7fffff0000000000000000000000000000000000000000000000000000000000005b98505050505050505050610515565b84607089901b87610d1c576000610d2e565b6f800000000000000000000000000000005b6fffffffffffffffffffffffffffffffff16171760801b98505050505050505050610515565b610d5c6125dd565b610d64612646565b60405180610100016040528084600001516001600160a01b0316815260200184602001516001600160a01b031681526020016000815260200160008152602001600081526020016000815260200160006001600160a01b0316815260200184604001516001600160a01b031663c45a01556040518163ffffffff1660e01b815260040160206040518083038186803b158015610dff57600080fd5b505afa158015610e13573d6000803e3d6000fd5b505050506040513d601f19601f82011682018060405250810190610e3791906126f4565b6001600160a01b031690529050610e4c612646565b60405180610100016040528085602001516001600160a01b0316815260200185600001516001600160a01b031681526020016000815260200160008152602001600081526020016000815260200160006001600160a01b0316815260200185606001516001600160a01b031663c45a01556040518163ffffffff1660e01b815260040160206040518083038186803b158015610ee757600080fd5b505afa158015610efb573d6000803e3d6000fd5b505050506040513d601f19601f82011682018060405250810190610f1f91906126f4565b6001600160a01b031690529050610f358261162e565b9150610f408161162e565b60808301519091501580610f56575060a0820151155b80610f6357506080810151155b80610f70575060a0810151155b15610ff95760405180610100016040528083600001516001600160a01b0316815260200183602001516001600160a01b031681526020018360c001516001600160a01b031681526020018260c001516001600160a01b031681526020018360400151815260200183606001518152602001826060015181526020016000815250925050506104fb565b600061101783608001518460a001518460a0015185608001516117d4565b905061102281611850565b60000b6001146110b15760405180610100016040528084600001516001600160a01b0316815260200184602001516001600160a01b031681526020018460c001516001600160a01b031681526020018360c001516001600160a01b03168152602001846040015181526020018460600151815260200183606001518152602001600081525093505050506104fb565b8160a001518360800151116112455760006110de84608001518560a001518560a0015186608001516118f5565b905061111384608001518560a001518361110e6110fe8b60800151610493565b6111096103e8610493565b611929565b611d04565b60608501819052156111b95785604001516001600160a01b03166385f8c259856060015186608001518760a001516040518463ffffffff1660e01b815260040161115f93929190612af2565b60206040518083038186803b15801561117757600080fd5b505afa15801561118b573d6000803e3d6000fd5b505050506040513d601f19601f820116820180604052508101906111af9190612880565b604085015261123f565b60405180610100016040528085600001516001600160a01b0316815260200185602001516001600160a01b031681526020018560c001516001600160a01b031681526020018460c001516001600160a01b0316815260200185604001518152602001856060015181526020018460600151815260200160008152509450505050506104fb565b506113e4565b60006112638460a00151856080015185608001518660a001516118f5565b905061129583608001518460a0015161128561127f6001610493565b85611929565b61110e6110fe8b60a00151610493565b60608401819052156111b95785606001516001600160a01b03166385f8c259846060015185608001518660a001516040518463ffffffff1660e01b81526004016112e193929190612af2565b60206040518083038186803b1580156112f957600080fd5b505afa15801561130d573d6000803e3d6000fd5b505050506040513d601f19601f820116820180604052508101906113319190612880565b604080850182905287810151608087015160a088015192517f85f8c2590000000000000000000000000000000000000000000000000000000081526001600160a01b03909216936385f8c2599361138d93919291600401612af2565b60206040518083038186803b1580156113a557600080fd5b505afa1580156113b9573d6000803e3d6000fd5b505050506040513d601f19601f820116820180604052508101906113dd9190612880565b6040850152505b61142a611425611413836113fe6110fe8a60800151610493565b61140e6110fe8b60a00151610493565b611de3565b6114208660400151610493565b611e36565b612186565b604080850182905286810151608086015160a087015192517f054d50d40000000000000000000000000000000000000000000000000000000081526001600160a01b039092169363054d50d49361148693919291600401612af2565b60206040518083038186803b15801561149e57600080fd5b505afa1580156114b2573d6000803e3d6000fd5b505050506040513d601f19601f820116820180604052508101906114d69190612880565b6060808501829052860151608084015160a08501516040517f054d50d40000000000000000000000000000000000000000000000000000000081526001600160a01b039093169363054d50d49361153293919290600401612af2565b60206040518083038186803b15801561154a57600080fd5b505afa15801561155e573d6000803e3d6000fd5b505050506040513d601f19601f820116820180604052508101906115829190612880565b82606001818152505060405180610100016040528084600001516001600160a01b0316815260200184602001516001600160a01b031681526020018460c001516001600160a01b031681526020018360c001516001600160a01b031681526020018460400151815260200184606001518152602001836060015181526020018460400151846060015111611617576000611623565b84604001518460600151035b905295945050505050565b611636612646565b60e0820151825160208401516040517fe6a439050000000000000000000000000000000000000000000000000000000081526001600160a01b039093169263e6a439059261168892909160040161292e565b60206040518083038186803b1580156116a057600080fd5b505afa1580156116b4573d6000803e3d6000fd5b505050506040513d601f19601f820116820180604052508101906116d891906126f4565b6001600160a01b031660c083018190526116f35750806104fb565b600061170783600001518460200151612246565b5090506000808460c001516001600160a01b0316630902f1ac6040518163ffffffff1660e01b815260040160606040518083038186803b15801561174a57600080fd5b505afa15801561175e573d6000803e3d6000fd5b505050506040513d601f19601f820116820180604052508101906117829190612832565b5091509150826001600160a01b031685600001516001600160a01b0316146117ab5780826117ae565b81815b6dffffffffffffffffffffffffffff90811660a088015216608086015250929392505050565b6000806117e086610493565b905060006117ed86610493565b905060006117fa86610493565b9050600061180786610493565b905060006118158385611e36565b905060006118238387611e36565b90506118416118328383611929565b61183c6001610493565b610500565b9b9a5050505050505050505050565b60006f7fffffffffffffffffffffffffffffff608083901c166f7fff000000000000000000000000000081111561188657600080fd5b6fffffffffffffffffffffffffffffffff81166118a75760009150506104fb565b6f80000000000000000000000000000000608084901c106118eb577fffffffffffffffffffffffffffffffffffffffffffffffffffffffffffffffff9150506104fb565b60019150506104fb565b600080611903848701610493565b90506000611912848701610493565b905061191e8282611929565b979650505050505050565b6000617fff60f084811c8216919084901c81169082141561198a5780617fff141561197957507f7fff80000000000000000000000000000000000000000000000000000000000091506105159050565b505050600160ff1b81168218610515565b80617fff14156119f6577dffffffffffffffffffffffffffff000000000000000000000000000000008416156119e557507f7fff80000000000000000000000000000000000000000000000000000000000091506105159050565b505050808218600160ff1b16610515565b7f7fffffffffffffffffffffffffffffff000000000000000000000000000000008416611aa2577f7fffffffffffffffffffffffffffffff000000000000000000000000000000008516611a6f57507f7fff80000000000000000000000000000000000000000000000000000000000091506105159050565b505050808218600160ff1b167f7fff00000000000000000000000000000000000000000000000000000000000017610515565b6dffffffffffffffffffffffffffff608085901c1681611ac55760019150611ad7565b6e010000000000000000000000000000175b6dffffffffffffffffffffffffffff608087901c1683611b3b578015611b36576000611b02826106fb565b6001955060e2039384017fffffffffffffffffffffffffffffffffffffffffffffffffffffffffffffff8e01939190911b90505b611b50565b6e0100000000000000000000000000001760721b5b818181611b5957fe5b04905080611b8657600160ff1b87871816611b75576000611b7b565b600160ff1b5b945050505050610515565b6d1000000000000000000000000000811015611b9e57fe5b60006e080000000000000000000000000000821015611bff576e040000000000000000000000000000821015611bf4576e020000000000000000000000000000821015611bec576070611bef565b60715b611bf7565b60725b60ff16611c08565b611c08826106fb565b905083614071018186011115611c2657617fff945060009150611cc0565b83818601613ffc011015611c41576000945060009150611cc0565b83818601613f8c011015611c8e578385613ffc011115611c6c578385613ffc010382901b9150611c85565b8385613ffc011015611c8557613ffc8585030382901c91505b60009450611cc0565b6070811115611ca1576070810382901c91505b6dffffffffffffffffffffffffffff8216915083818601613f8d010394505b81607086901b888a186f8000000000000000000000000000000060801b1660801c6fffffffffffffffffffffffffffffffff16171760801b95505050505050610515565b600080611d1f611d148486611e36565b60035460801b611e36565b90506000611d2c86610493565b90506000611d3a8287611e36565b90506000611d55611d4b6002610493565b6114208885611e36565b90506000611d628a610493565b90506000611d7d82611d788561183c8c87611e36565b6107ab565b90506000611d8b8386610500565b90506000611d9d8a6114208985611e36565b90506000611dac898584612304565b9050611db781611850565b60000b600114611dc8576000611dd1565b611dd181612186565b9e9d5050505050505050505050505050565b600080611df06001610493565b90506000611dfe8286610500565b90506000611e0c8386610500565b90506000611e1e8461183c85856107ab565b9050611e2a8189611929565b98975050505050505050565b6000617fff60f084811c8216919084901c811690821415611f265780617fff1415611ed4577fffffffffffffffffffffffffffffffff000000000000000000000000000000008581169085161415611e9957505050600160ff1b81168218610515565b600160ff1b7fffffffffffffffffffffffffffffffff0000000000000000000000000000000086861816141561080757505050818117610515565b7f7fffffffffffffffffffffffffffffff00000000000000000000000000000000841661197957507f7fff80000000000000000000000000000000000000000000000000000000000091506105159050565b80617fff1415611f93577f7fffffffffffffffffffffffffffffff000000000000000000000000000000008516611f8257507f7fff80000000000000000000000000000000000000000000000000000000000091506105159050565b505050600160ff1b82168118610515565b6dffffffffffffffffffffffffffff608086901c1682611fb65760019250611fc8565b6e010000000000000000000000000000175b6dffffffffffffffffffffffffffff608086901c1682611feb5760019250611ffd565b6e010000000000000000000000000000175b908102908161201a57600160ff1b87871816611b75576000611b7b565b9282019260007c0200000000000000000000000000000000000000000000000000000000831015612080577c010000000000000000000000000000000000000000000000000000000083101561207857612073836106fb565b61207b565b60e05b612083565b60e15b9050614070818601101561209e576000945060009250612142565b6140e081860110156120e1576140708510156120c357846140700383901c92506120d8565b6140708511156120d857614070850383901b92505b60009450612142565b61c0dd81860111156120fb57617fff945060009250612142565b6070811115612112576070810383901c9250612125565b6070811015612125578060700383901b92505b6dffffffffffffffffffffffffffff831692506140df8186010394505b82607086901b888a186f8000000000000000000000000000000060801b1660801c6fffffffffffffffffffffffffffffffff16171760801b95505050505050610515565b6000617fff60f083901c16613fff8110156121a55760009150506104fb565b6f80000000000000000000000000000000608084901c106121c557600080fd5b6140fe8111156121d457600080fd5b6e0100000000000000000000000000006dffffffffffffffffffffffffffff608085901c161761406f8210156122105761406f8290031c61223f565b61406f82111561223f577fffffffffffffffffffffffffffffffffffffffffffffffffffffffffffffbf9182011b5b9392505050565b600080826001600160a01b0316846001600160a01b03161415612295576040517f08c379a00000000000000000000000000000000000000000000000000000000081526004016101f890612a27565b826001600160a01b0316846001600160a01b0316106122b55782846122b8565b83835b90925090506001600160a01b0382166122fd576040517f08c379a00000000000000000000000000000000000000000000000000000000081526004016101f890612a84565b9250929050565b60008061233c61233661233161231a8788611e36565b61183c6123276004610493565b6114208b8a611e36565b61235e565b85610500565b90506123558161110961234f6002610493565b88611e36565b95945050505050565b60006f80000000000000000000000000000000608083901c11156123a357507f7fff8000000000000000000000000000000000000000000000000000000000006104fb565b617fff60f083901c8116908114156123be57829150506104fb565b6dffffffffffffffffffffffffffff608084901c16816123e157600191506123f3565b6e010000000000000000000000000000175b806124045750600091506104fb9050565b613fff8201600190811c9216158015612480576e010000000000000000000000000000821061243957607182901b915061247b565b6000612444836106fb565b60e20360fe167fffffffffffffffffffffffffffffffffffffffffffffffffffffffffffffff90810160011c909403939290921b91505b6124e4565b6e01000000000000000000000000000082106124a257607082901b91506124e4565b60006124ad836106fb565b60e10360fe167fffffffffffffffffffffffffffffffffffffffffffffffffffffffffffffff90810160011c909403939290921b91505b6e01000000000000000000000000000080830401600190811c9081848161250757fe5b048201901c9050600181848161251957fe5b048201901c9050600181848161252b57fe5b048201901c9050600181848161253d57fe5b048201901c9050600181848161254f57fe5b048201901c9050600181848161256157fe5b048201901c9050600081848161257357fe5b04905081811015612582578091505b816dffffffffffffffffffffffffffff16607086901b1760801b955050505050506104fb565b6040805160c081018252600080825260208201819052918101829052606081018290526080810182905260a081019190915290565b60405180610100016040528060006001600160a01b0316815260200160006001600160a01b0316815260200160006001600160a01b0316815260200160006001600160a01b03168152602001600081526020016000815260200160008152602001600081525090565b60405180610100016040528060006001600160a01b0316815260200160006001600160a01b031681526020016000815260200160008152602001600081526020016000815260200160006001600160a01b0316815260200160006001600160a01b031681525090565b80516104fb81612c53565b80516dffffffffffffffffffffffffffff811681146104fb57600080fd5b6000602082840312156126e9578081fd5b813561223f81612c53565b600060208284031215612705578081fd5b815161223f81612c53565b60008060208385031215612722578081fd5b823567ffffffffffffffff80821115612739578283fd5b818501915085601f83011261274c578283fd5b81358181111561275a578384fd5b866020808302850101111561276d578384fd5b60209290920196919550909350505050565b600060208284031215612790578081fd5b8151801515811461223f578182fd5b600060c082840312156127b0578081fd5b60405160c0810181811067ffffffffffffffff821117156127cd57fe5b60405282516127db81612c53565b815260208301516127eb81612c53565b602082015260408301516127fe81612c53565b604082015261280f606084016126af565b60608201526080830151608082015260a083015160a08201528091505092915050565b600080600060608486031215612846578081fd5b61284f846126ba565b925061285d602085016126ba565b9150604084015163ffffffff81168114612875578182fd5b809150509250925092565b600060208284031215612891578081fd5b5051919050565b60008151808452815b818110156128bd576020818501810151868301820152016128a1565b818111156128ce5782602083870101525b50601f017fffffffffffffffffffffffffffffffffffffffffffffffffffffffffffffffe0169290920160200192915050565b6001600160a01b0391909116815260200190565b6001600160a01b03929092168252602082015260400190565b6001600160a01b0392831681529116602082015260400190565b6001600160a01b039a8b168152988a1660208a0152968916604089015294881660608801529287166080870152951660a085015260c084019490945260e083019390935261010082019290925260ff9091166101208201526101400190565b6001600160a01b03968716815294909516602085015260408401929092526060830152608082015260a081019190915260c00190565b6000602082526105126020830184612898565b60208082526014908201527f4361756768742077697468206e6f206572726f72000000000000000000000000604082015260600190565b60208082526025908201527f556e697377617056324c6962726172793a204944454e544943414c5f4144445260408201527f4553534553000000000000000000000000000000000000000000000000000000606082015260800190565b6020808252601e908201527f556e697377617056324c6962726172793a205a45524f5f414444524553530000604082015260600190565b60208082526016908201527f53656e646572206e6f7420617574686f72697a65642e00000000000000000000604082015260600190565b9283526020830191909152604082015260600190565b60008083357fffffffffffffffffffffffffffffffffffffffffffffffffffffffffffffffe1843603018112612b3c578283fd5b83018035915067ffffffffffffffff821115612b56578283fd5b6020019150368190038213156122fd57600080fd5b60e01c90565b600060443d1015612b8157612c50565b600481823e6308c379a0612b958251612b6b565b14612b9f57612c50565b6040517ffffffffffffffffffffffffffffffffffffffffffffffffffffffffffffffffc3d016004823e80513d67ffffffffffffffff8160248401118184111715612bed5750505050612c50565b82840192508251915080821115612c075750505050612c50565b503d83016020828401011115612c1f57505050612c50565b601f017fffffffffffffffffffffffffffffffffffffffffffffffffffffffffffffffe01681016020016040529150505b90565b6001600160a01b038116811461023a57600080fdfea26469706673582212206c9822c1189ccf350a80c5ef272a884f72d09586d5602ea2180e6b3434d0334c64736f6c63430007040033",
	"immutableReferences": {},
	"source": "pragma solidity >=0.6.0;\r\n// SPDX-License-Identifier: UNLICENSED\r\npragma experimental ABIEncoderV2;\r\nimport '../External/Uniswap.sol';\r\nimport \"../External/IERC20.sol\";\r\nimport \"../Execution/TriArbNoRD.sol\";\r\n\r\ncontract OptimizerTrade {\r\n\taddress UniswapFactoryAddress; //For converting to std\r\n\taddress payable public owner;\r\n\taddress payable execContract;\r\n\tbytes16 NEG_1;\r\n\r\n\tstruct SimpleCall {\r\n\t\taddress outerToken;\r\n\t\taddress innerToken;\r\n\t\taddress exchange1;\r\n\t\taddress exchange2;\r\n\t\tuint256 swapFee1;\r\n\t\tuint256 swapFee2;\r\n\t}\r\n\r\n\tstruct TriCall {\r\n\t\taddress token1;\r\n\t\taddress token2;\r\n\t\taddress token3;\r\n\t\taddress exchange1;\r\n\t\taddress exchange2;\r\n\t\taddress exchange3;\r\n\t\tuint256 mpMultiplier;\r\n\t}\r\n\r\n\tstruct Opportunity {\r\n\t\taddress outerToken;\r\n\t\taddress innerToken;\r\n\t\taddress awayPool;\r\n\t\taddress returnPool;\r\n\t\tuint256 inputWei;\r\n\t\tuint256 innerWei;\r\n\t\tuint256 outputWei;\r\n\t\tuint256 diff;\r\n\t}\r\n\r\n\tstruct TriOpportunity {\r\n\t\taddress token1;\r\n\t\taddress token2;\r\n\t\taddress token3;\r\n\t\taddress pool1;\r\n\t\taddress pool2;\r\n\t\taddress pool3;\r\n\t\tuint256 input1;\r\n\t\tuint256 output1; // == input2\r\n\t\tuint256 output2; // == input 3\r\n\t\tuint256 output3;\r\n\t\tuint256 diff;\r\n\t}\r\n\r\n\tstruct OptimalInfo {\r\n\t\taddress tokenIn;\r\n\t\taddress tokenOut;\r\n\t\tuint256 input;\r\n\t\tuint256 output;\r\n\t\tuint256 reserveIn;\r\n\t\tuint256 reserveOut;\r\n\t\taddress poolAddress;\r\n\t\taddress factory;\r\n\t}\r\n\r\n\tevent simpleOppEvent(\r\n\t\taddress token1,\r\n\t\taddress token2,\r\n\t\tuint256 inputWei,\r\n\t\tuint256 innerWei,\r\n\t\tuint256 outputWei,\r\n\t\tuint256 diff\r\n\t\t);\r\n\r\n\tevent triOppEvent(\r\n\t\taddress token1,\r\n\t\taddress token2,\r\n\t\taddress token3,\r\n\t\tuint256 input1,\r\n\t\tuint256 output1, // == input2\r\n\t\tuint256 output2, // == input 3\r\n\t\tuint256 output3,\r\n\t\tuint256 diff\r\n\t);\r\n\r\n\tevent ErrorHandled(string reason);\r\n\r\n\t//Create modifier to limit who can call the contract\r\n\tmodifier onlyOwner() {\r\n\t\trequire(msg.sender == owner, 'Sender not authorized.');\r\n\t\t// Do not forget the \"_;\"! It will\r\n\t\t// be replaced by the actual function\r\n\t\t// body when the modifier is used.\r\n\t\t_;\r\n\t}\r\n\r\n\tconstructor(address uniswapFactory, address payable exec) payable {\r\n\t\texecContract = exec;\r\n\t\tUniswapFactoryAddress = uniswapFactory;\r\n\t\towner = payable(msg.sender);\r\n\t\tNEG_1 = ABDKFloat.sub(ABDKFloat.fromUInt(0), ABDKFloat.fromUInt(1));\r\n\t}\r\n\r\n    //Withdraws any ethereum from the address\r\n    function withdrawEth() public onlyOwner {\r\n        owner.transfer(address(this).balance);\r\n    }\r\n\r\n    //Withdraw a specific ERC20 token\r\n    function withdrawErc20(address token) external onlyOwner {\r\n        IERC20 newToken = IERC20(token);\r\n        newToken.transfer(owner, newToken.balanceOf(address(this)));\r\n    }\r\n\r\n    //Change the contract owner\r\n    function changeOwner(address payable newOwner) external onlyOwner {\r\n        owner = newOwner;\r\n    }\r\n\r\n\t//Change the router address\r\n\tfunction changeUniswapFactory(address newAddress) external onlyOwner {\r\n\t\tUniswapFactoryAddress = newAddress;\r\n\t}\r\n\r\n\tfunction simpleMulticall(bytes[] calldata calls) external{\r\n\t\tfor (uint i = 0; i < calls.length; i++) {\r\n\t\t\tgetOpportunityFromCall(calls[i]);\r\n\t\t}\r\n  \t}\r\n\r\n\t// function triMulticall(bytes[] calldata calls) external{\r\n\t// \tfor (uint i = 0; i < calls.length; i++) {\r\n\t// \t\tgetTriOpportunityFromCall(calls[i]);\r\n\t// \t}\r\n  // }\r\n\r\n\tfunction getOpportunityFromCall(\r\n\t\tbytes memory call\r\n\t) internal{\r\n\t\tSimpleCall memory params = abi.decode(call, (SimpleCall));\r\n\t\tOpportunity memory opp = getOpportunity(params);\r\n\t\tif(opp.diff > 0){\r\n\t\t\temit simpleOppEvent(opp.outerToken, opp.innerToken, opp.inputWei, opp.innerWei, opp.outputWei, opp.diff);\r\n\t\t\ttry TriArbNoRD(execContract).initiateTrade(abi.encode(opp.outerToken, opp.innerToken, opp.innerToken, opp.awayPool, opp.returnPool, opp.returnPool, opp.inputWei, opp.innerWei, opp.outputWei, 0)){}\r\n\t\t\tcatch Error(string memory reason){\r\n\t\t\t\temit ErrorHandled(reason);\r\n\t\t\t}catch{\r\n\t\t\t\temit ErrorHandled('Caught with no error');\r\n\t\t\t}\r\n\t\t}\r\n\t\tdelete opp;\r\n\t\tdelete params;\r\n\t}\r\n\r\n\t// function getTriOpportunityFromCall(\r\n\t// \tbytes memory call\r\n\t// ) internal{\r\n\t// \tTriCall memory params = abi.decode(call, (TriCall));\r\n\t// \tTriOpportunity memory opp = getTriOpportunity(params);\r\n\t// \tif(opp.diff > 0){\r\n\t// \t\temit triOppEvent(opp.token1, opp.token2, opp.token3, opp.input1, opp.output1, opp.output2, opp.output3, opp.diff);\r\n\t// \t\ttry TriArbNoRD(execContract).initiateTrade(abi.encode(opp.token1, opp.token2, opp.token3, opp.pool1, opp.pool2, opp.pool3, opp.input1, opp.output1, opp.output2, opp.output3)){}\r\n\t// \t\tcatch Error(string memory reason){\r\n\t// \t\t\temit ErrorHandled(reason);\r\n\t// \t\t}catch{\r\n\t// \t\t\temit ErrorHandled('Caught with no error');\r\n\t// \t\t}\r\n\t// \t}\r\n\t// \tdelete opp;\r\n\t// \tdelete params;\r\n\t// }\r\n\r\n\tfunction getOptimalInfo(OptimalInfo memory info) internal view returns (OptimalInfo memory optimalInfo) {\r\n\t\t//Get pool address, if it doesnt exist, return empty info which causes exit \r\n\t\tinfo.poolAddress = IUniswapV2Factory(info.factory).getPair(info.tokenIn, info.tokenOut);\r\n\t\tif(info.poolAddress == address(0)){\r\n\t\t\treturn info;\r\n\t\t}\r\n\r\n\t\t{\r\n\t\t\t//Get reserves for tokenIn and tokenOut and orders them correctly.\r\n\t\t\t(address tokenA, ) = sortTokens(info.tokenIn, info.tokenOut);\r\n\t\t\t(uint112 reserveA, uint112 reserveB, )  = IUniswapV2Pair(info.poolAddress).getReserves();\r\n\t\t\t(info.reserveIn, info.reserveOut) = info.tokenIn == tokenA ? (reserveA, reserveB) : (reserveB, reserveA); //Get reserve order\r\n\t\t\tdelete tokenA;\r\n\t\t\tdelete reserveA;\r\n\t\t\tdelete reserveB;\r\n\t\t}\r\n\r\n\t\t// //If either reserve is 0 then we should exit, no opp is possible on this route\r\n\t\t// if(info.reserveIn <= 0 || info.reserveOut <= 0 ){\r\n\t\t// \treturn info;\r\n\t\t// }\r\n\r\n\t\treturn info;\r\n\t}\r\n\r\n\tfunction getAvgMP(\r\n\t\tuint256 reserve1A, \r\n\t\tuint256 reserve1B,\r\n\t\tuint256 reserve2A,\r\n\t\tuint256 reserve2B\r\n\t) internal view returns (bytes16) {\r\n\t\tbytes16 rA = ABDKFloat.fromUInt(reserve1A + reserve2A);\r\n\t\tbytes16 rB = ABDKFloat.fromUInt(reserve1B + reserve2B);\r\n\t\treturn ABDKFloat.div(rA, rB);\r\n\t}\r\n\r\n\tfunction solveQuadratic(\r\n\t\tbytes16 a, bytes16 b, bytes16 c\r\n\t) internal view returns (bytes16) {\r\n\t\t// returns ((-b + sqrt(b^2 - 4ac)) / 2a)\r\n\t\tbytes16 numerator = ABDKFloat.sub(ABDKFloat.sqrt(ABDKFloat.sub(ABDKFloat.mul(b, b), ABDKFloat.mul(ABDKFloat.fromUInt(4), ABDKFloat.mul(a, c)))), b);\r\n\t\treturn ABDKFloat.div(numerator, ABDKFloat.mul(ABDKFloat.fromUInt(2), a));\r\n\t}\r\n\r\n\tfunction outputForTargetMP(\r\n\t\tuint256 Rin, \r\n\t\tuint256 Rout,\r\n\t\tbytes16 targetMP, \r\n\t\tbytes16 swapFee\r\n\t) internal view returns (uint256) {\r\n\t\tbytes16 a = ABDKFloat.mul(ABDKFloat.mul(swapFee, targetMP), NEG_1);\r\n\t\tbytes16 RoutAsBytes = ABDKFloat.fromUInt(Rout);\r\n\t\tbytes16 RoutByTargetMP = ABDKFloat.mul(RoutAsBytes, targetMP);\r\n\t\tbytes16 b1 = ABDKFloat.mul(ABDKFloat.fromUInt(2), ABDKFloat.mul(swapFee, RoutByTargetMP));\r\n\t\tbytes16 RinAsBytes = ABDKFloat.fromUInt(Rin);\r\n\t\tbytes16 b = ABDKFloat.add(RinAsBytes, ABDKFloat.sub(b1, ABDKFloat.mul(swapFee, RinAsBytes)));\r\n\t\tbytes16 c1 = ABDKFloat.sub(RinAsBytes, RoutByTargetMP);\r\n\t\tbytes16 c = ABDKFloat.mul(swapFee, ABDKFloat.mul(RoutAsBytes, c1));\r\n\t\tbytes16 sol = solveQuadratic(a, b, c);\r\n\t\treturn ABDKFloat.sign(sol) == 1 ? ABDKFloat.toUInt(sol) : 0;\r\n\t}\r\n\r\n\tfunction getImbalance(\r\n\t\tuint256 reserve1A, \r\n\t\tuint256 reserve1B,\r\n\t\tuint256 reserve2A,\r\n\t\tuint256 reserve2B\r\n\t) internal pure returns (bytes16) {\r\n\t\tbytes16 r1a = ABDKFloat.fromUInt(reserve1A);\r\n\t\tbytes16 r1b = ABDKFloat.fromUInt(reserve1B);\r\n\t\tbytes16 r2a = ABDKFloat.fromUInt(reserve2A);\r\n\t\tbytes16 r2b = ABDKFloat.fromUInt(reserve2B);\r\n\t\tbytes16 numerator = ABDKFloat.mul(r2a, r1b);\r\n\t\tbytes16 denom = ABDKFloat.mul(r2b, r1a);\r\n\t\treturn ABDKFloat.sub(ABDKFloat.div(numerator, denom), ABDKFloat.fromUInt(1));\r\n\t}\r\n\r\n\tfunction getInputMultiplier(\r\n\t\tbytes16 imbalance,\r\n\t\tbytes16 swapFee1,\r\n\t\tbytes16 swapFee2\r\n\t) internal pure returns (bytes16) {\r\n\t\tbytes16 one = ABDKFloat.fromUInt(1);\r\n\t\tbytes16 sfMinus1 = ABDKFloat.sub(one, swapFee1);\r\n\t\tbytes16 sfMinus2 = ABDKFloat.sub(one, swapFee2);\r\n\t\tbytes16 numerator = ABDKFloat.sub(one, ABDKFloat.add(sfMinus1, sfMinus2));\r\n\t\treturn ABDKFloat.div(numerator, imbalance);\r\n\t}\r\n\r\n\tfunction getOpportunity(\r\n\t\tSimpleCall memory params\r\n\t\t//uint256 portion\r\n\t) internal view returns (Opportunity memory) {\r\n\t\tOptimalInfo memory awayInfo = OptimalInfo(\r\n\t\t\tparams.outerToken, // tokenIn\r\n\t\t\tparams.innerToken, // tokenOut\r\n\t\t\t0, // input\r\n\t\t\t0, // output\r\n\t\t\t0, // reserveIn \r\n\t\t\t0, // reserveOut\r\n\t\t\taddress(0), // poolAddress\r\n\t\t\tIUniswapV2Router02(params.exchange1).factory()\r\n\t\t);\r\n\t\tOptimalInfo memory returnInfo = OptimalInfo(\r\n\t\t\tparams.innerToken, // tokenIn\r\n\t\t\tparams.outerToken, // tokenOut\r\n\t\t\t0, // optimalInput\r\n\t\t\t0, // optimalOutput\r\n\t\t\t0, // reserveIn \r\n\t\t\t0, // reserveOut\r\n\t\t\taddress(0), // poolAddress\r\n\t\t\tIUniswapV2Router02(params.exchange2).factory()\r\n\t\t);\r\n\t\tawayInfo = getOptimalInfo(awayInfo);\r\n\t\treturnInfo = getOptimalInfo(returnInfo);\r\n\r\n\t\tif(awayInfo.reserveIn <= 0 || awayInfo.reserveOut <= 0 || returnInfo.reserveIn <= 0 || returnInfo.reserveOut <= 0){\r\n\t\t\treturn Opportunity(\r\n\t\t\t\tawayInfo.tokenIn, \r\n\t\t\t\tawayInfo.tokenOut, \r\n\t\t\t\tawayInfo.poolAddress,\r\n\t\t\t\treturnInfo.poolAddress,\r\n\t\t\t\tawayInfo.input,\r\n\t\t\t\tawayInfo.output,\r\n\t\t\t\treturnInfo.output,\r\n\t\t\t\t0\r\n\t\t\t);\r\n\t\t}\r\n\r\n\t\tbytes16 imbalance = getImbalance(\r\n\t\t\tawayInfo.reserveIn,\r\n\t\t\tawayInfo.reserveOut,\r\n\t\t\treturnInfo.reserveOut,\r\n\t\t\treturnInfo.reserveIn\r\n\t\t);\r\n\r\n\t\tif (ABDKFloat.sign(imbalance) != 1) {\r\n\t\t\treturn Opportunity(\r\n\t\t\t\tawayInfo.tokenIn, \r\n\t\t\t\tawayInfo.tokenOut, \r\n\t\t\t\tawayInfo.poolAddress,\r\n\t\t\t\treturnInfo.poolAddress,\r\n\t\t\t\tawayInfo.input,\r\n\t\t\t\tawayInfo.output,\r\n\t\t\t\treturnInfo.output,\r\n\t\t\t\t0\r\n\t\t\t);\r\n\t\t}\r\n\r\n\t\tif (awayInfo.reserveIn <= returnInfo.reserveOut) {\r\n\t\t\tbytes16 targetMP = getAvgMP(\r\n\t\t\t\tawayInfo.reserveIn,\r\n\t\t\t\tawayInfo.reserveOut,\r\n\t\t\t\treturnInfo.reserveOut,\r\n\t\t\t\treturnInfo.reserveIn\r\n\t\t\t); \r\n\r\n\t\t\tawayInfo.output = outputForTargetMP(\r\n\t\t\t\tawayInfo.reserveIn, \r\n\t\t\t\tawayInfo.reserveOut,\r\n\t\t\t\ttargetMP,\r\n\t\t\t\tABDKFloat.div(ABDKFloat.fromUInt(params.swapFee1), ABDKFloat.fromUInt(1000))\r\n\t\t\t);\r\n\r\n\t\t\tif (awayInfo.output > 0) {\r\n\t\t\t\tawayInfo.input = IUniswapV2Router02(params.exchange1).getAmountIn(awayInfo.output, awayInfo.reserveIn, awayInfo.reserveOut);\r\n\t\t\t} else {\r\n\t\t\t\treturn Opportunity(\r\n\t\t\t\t\tawayInfo.tokenIn, \r\n\t\t\t\t\tawayInfo.tokenOut, \r\n\t\t\t\t\tawayInfo.poolAddress,\r\n\t\t\t\t\treturnInfo.poolAddress, \r\n\t\t\t\t\tawayInfo.input, \r\n\t\t\t\t\tawayInfo.output, \r\n\t\t\t\t\treturnInfo.output, \r\n\t\t\t\t\t0\r\n\t\t\t\t);\r\n\t\t\t}\r\n\t\t} else {\r\n\t\t\tbytes16 targetMP = getAvgMP(\r\n\t\t\t\tawayInfo.reserveOut,\r\n\t\t\t\tawayInfo.reserveIn,\r\n\t\t\t\treturnInfo.reserveIn,\r\n\t\t\t\treturnInfo.reserveOut\r\n\t\t\t);\r\n\r\n\t\t\treturnInfo.output = outputForTargetMP(\r\n\t\t\t\treturnInfo.reserveIn,\r\n\t\t\t\treturnInfo.reserveOut,\r\n\t\t\t\tABDKFloat.div(ABDKFloat.fromUInt(1), targetMP),\r\n\t\t\t\tABDKFloat.div(ABDKFloat.fromUInt(params.swapFee2), ABDKFloat.fromUInt(1000))\r\n\t\t\t);\r\n\r\n\t\t\tif (returnInfo.output > 0) {\r\n\t\t\t\treturnInfo.input = IUniswapV2Router02(params.exchange2).getAmountIn(returnInfo.output, returnInfo.reserveIn, returnInfo.reserveOut);\r\n\t\t\t\tawayInfo.input = IUniswapV2Router02(params.exchange1).getAmountIn(returnInfo.input, awayInfo.reserveIn, awayInfo.reserveOut);\r\n\t\t\t} else {\r\n\t\t\t\treturn Opportunity(\r\n\t\t\t\t\tawayInfo.tokenIn, \r\n\t\t\t\t\tawayInfo.tokenOut, \r\n\t\t\t\t\tawayInfo.poolAddress,\r\n\t\t\t\t\treturnInfo.poolAddress,\r\n\t\t\t\t\tawayInfo.input,\r\n\t\t\t\t\tawayInfo.output,\r\n\t\t\t\t\treturnInfo.output,\r\n\t\t\t\t\t0\r\n\t\t\t\t);\r\n\t\t\t}\r\n\t\t}\r\n\t\tawayInfo.input = ABDKFloat.toUInt(ABDKFloat.mul(getInputMultiplier(\r\n\t\t\timbalance, \r\n\t\t\tABDKFloat.div(ABDKFloat.fromUInt(params.swapFee1), ABDKFloat.fromUInt(1000)), \r\n\t\t\tABDKFloat.div(ABDKFloat.fromUInt(params.swapFee2), ABDKFloat.fromUInt(1000))\r\n\t\t), ABDKFloat.fromUInt(awayInfo.input)));\r\n\t\tawayInfo.output = IUniswapV2Router02(params.exchange1).getAmountOut(awayInfo.input, awayInfo.reserveIn, awayInfo.reserveOut);\r\n\t\treturnInfo.output = IUniswapV2Router02(params.exchange2).getAmountOut(awayInfo.output, returnInfo.reserveIn, returnInfo.reserveOut);\r\n\t\treturn Opportunity(\r\n\t\t\tawayInfo.tokenIn, \r\n\t\t\tawayInfo.tokenOut, \r\n\t\t\tawayInfo.poolAddress,\r\n\t\t\treturnInfo.poolAddress,\r\n\t\t\tawayInfo.input,\r\n\t\t\tawayInfo.output,\r\n\t\t\treturnInfo.output, \r\n\t\t\treturnInfo.output > awayInfo.input ? returnInfo.output - awayInfo.input : 0\r\n\t\t);\r\n\t}\r\n\r\n\t// function getTriOpportunity (\r\n\t// \tTriCall memory params\r\n\t// ) internal view returns (TriOpportunity memory) {\r\n\t// \tOptimalInfo memory info1 = OptimalInfo(\r\n\t// \t\tparams.token1, // tokenIn\r\n\t// \t\tparams.token2, // tokenOut\r\n\t// \t\t0, // optimalInput\r\n\t// \t\t0, // optimalOutput\r\n\t// \t\t0, // reserveIn \r\n\t// \t\t0, // reserveOut\r\n\t// \t\tbytes16(0), // preMP\r\n\t// \t\tbytes16(0),// rootMP\r\n\t// \t\taddress(0), // poolAddress\r\n\t// \t\tIUniswapV2Router02(params.exchange1).factory()\r\n\t// \t);\r\n\t\t\r\n\t// \tOptimalInfo memory info2 = OptimalInfo(\r\n\t// \t\tparams.token2, // tokenIn\r\n\t// \t\tparams.token3, // tokenOut\r\n\t// \t\t0, // optimalInput\r\n\t// \t\t0, // optimalOutput\r\n\t// \t\t0, // reserveIn \r\n\t// \t\t0, // reserveOut\r\n\t// \t\tbytes16(0), // preMP\r\n\t// \t\tbytes16(0),// rootMP\r\n\t// \t\taddress(0), // poolAddress\r\n\t// \t\tIUniswapV2Router02(params.exchange2).factory()\r\n\t// \t);\r\n\t\t\r\n\t// \tOptimalInfo memory info3 = OptimalInfo(\r\n\t// \t\tparams.token3, // tokenIn\r\n\t// \t\tparams.token1, // tokenOut\r\n\t// \t\t0, // optimalInput\r\n\t// \t\t0, // optimalOutput\r\n\t// \t\t0, // reserveIn \r\n\t// \t\t0, // reserveOut\r\n\t// \t\tbytes16(0), // preMP\r\n\t// \t\tbytes16(0),// rootMP\r\n\t// \t\taddress(0), // poolAddress\r\n\t// \t\tIUniswapV2Router02(params.exchange3).factory()\r\n\t// \t);\r\n\r\n\t// \tinfo1 = getOptimalInfo(info1, params.mpMultiplier);\r\n\t// \tinfo2 = getOptimalInfo(info2, params.mpMultiplier);\r\n\t// \tinfo3 = getOptimalInfo(info3, params.mpMultiplier);\r\n\r\n\t// \tif(info1.reserveIn <= 0 || info1.reserveOut <= 0 || info2.reserveIn <= 0 || info2.reserveOut <= 0 || info3.reserveIn <= 0 || info3.reserveOut <= 0){\r\n\t// \t\treturn TriOpportunity(\r\n\t// \t\t\tinfo1.tokenIn, info1.tokenOut, info2.tokenOut,\r\n\t// \t\t\tinfo1.poolAddress, info2.poolAddress, info3.poolAddress, \r\n\t// \t\t\tinfo1.optimalInput, info1.optimalOutput, info2.optimalOutput, info3.optimalOutput, \r\n\t// \t\t\t0\r\n\t// \t\t);\r\n\t// \t}\r\n\r\n\t// \tinfo1.optimalOutput = OptimizersTrade.getUniOutputGivenMp(info1.preMP, ABDKFloat.mul(info2.rootMP, info3.rootMP), info1.reserveOut);\r\n\t// \tif(info1.optimalOutput > 0) {\r\n\t// \t\tinfo1.optimalInput = IUniswapV2Router02(params.exchange1).getAmountIn(info1.optimalOutput, info1.reserveIn, info1.reserveOut);\r\n\t// \t} else {\r\n\t// \t\treturn TriOpportunity(\r\n\t// \t\t\tinfo1.tokenIn, info1.tokenOut, info2.tokenOut,\r\n\t// \t\t\tinfo1.poolAddress, info2.poolAddress, info3.poolAddress, \r\n\t// \t\t\tinfo1.optimalInput, info1.optimalOutput, info2.optimalOutput, info3.optimalOutput, \r\n\t// \t\t\t0\r\n\t// \t\t);\r\n\t// \t}\r\n\r\n\t// \tinfo2.optimalOutput = OptimizersTrade.getUniOutputGivenMp(info2.preMP, ABDKFloat.mul(info3.rootMP, info1.rootMP), info2.reserveOut);\r\n\t// \tif(info2.optimalOutput > 0){\r\n\t// \t\tinfo2.optimalInput = IUniswapV2Router02(params.exchange2).getAmountIn(info2.optimalOutput, info2.reserveIn, info2.reserveOut) ;\r\n\t// \t} else {\r\n\t// \t\treturn TriOpportunity(\r\n\t// \t\t\tinfo1.tokenIn, info1.tokenOut, info2.tokenOut,\r\n\t// \t\t\tinfo1.poolAddress, info2.poolAddress, info3.poolAddress, \r\n\t// \t\t\tinfo1.optimalInput, info1.optimalOutput, info2.optimalOutput, info3.optimalOutput, \r\n\t// \t\t\t0\r\n\t// \t\t);\r\n\t// \t}\r\n\r\n\t// \tinfo3.optimalOutput = OptimizersTrade.getUniOutputGivenMp(info3.preMP, ABDKFloat.mul(info1.rootMP, info2.rootMP), info3.reserveOut);\r\n\t// \tif(info3.optimalOutput > 0){\r\n\t// \t\tinfo3.optimalInput = IUniswapV2Router02(params.exchange3).getAmountIn(info3.optimalOutput, info3.reserveIn, info3.reserveOut) ;\r\n\t// \t} else {\r\n\t// \t\treturn TriOpportunity(\r\n\t// \t\t\tinfo1.tokenIn, info1.tokenOut, info2.tokenOut,\r\n\t// \t\t\tinfo1.poolAddress, info2.poolAddress, info3.poolAddress, \r\n\t// \t\t\tinfo1.optimalInput, info1.optimalOutput, info2.optimalOutput, info3.optimalOutput, \r\n\t// \t\t\t0\r\n\t// \t\t);\r\n\t// \t}\r\n\r\n\t// \tif (info1.optimalOutput <= info2.optimalInput) {\r\n\t// \t\tinfo2.optimalOutput = IUniswapV2Router02(params.exchange2).getAmountOut(info1.optimalOutput, info2.reserveIn, info2.reserveOut);\r\n\t// \t\tif (info2.optimalOutput <= info3.optimalInput) {\r\n\t// \t\t\tinfo3.optimalOutput = IUniswapV2Router02(params.exchange3).getAmountOut(info2.optimalOutput, info3.reserveIn, info3.reserveOut);\r\n\t// \t\t} else {\r\n\t// \t\t\t// info3 minimal\r\n\t// \t\t\tinfo2.optimalOutput = info3.optimalInput;\r\n\t// \t\t\tinfo1.optimalOutput = IUniswapV2Router02(params.exchange2).getAmountIn(info2.optimalOutput, info2.reserveIn, info2.reserveOut);  \r\n\t// \t\t\tinfo1.optimalInput = IUniswapV2Router02(params.exchange1).getAmountIn(info1.optimalOutput, info1.reserveIn, info1.reserveOut);  \r\n\t// \t\t}\r\n\t// \t} else {\r\n\t// \t\tif (info2.optimalOutput <= info3.optimalInput) {\r\n\t// \t\t\tinfo3.optimalOutput = IUniswapV2Router02(params.exchange3).getAmountIn(info2.optimalOutput, info3.reserveIn, info3.reserveOut); \r\n\t// \t\t\tinfo1.optimalInput = IUniswapV2Router02(params.exchange1).getAmountIn(info2.optimalOutput, info1.reserveIn, info1.reserveOut);  \r\n\t// \t\t\tinfo1.optimalOutput = info2.optimalInput;\r\n\t// \t\t} else {\r\n\t// \t\t\tinfo2.optimalOutput = info3.optimalInput;\r\n\t// \t\t\tinfo1.optimalOutput = IUniswapV2Router02(params.exchange2).getAmountIn(info2.optimalOutput, info2.reserveIn, info2.reserveOut);  \r\n\t// \t\t\tinfo1.optimalInput = IUniswapV2Router02(params.exchange1).getAmountIn(info1.optimalOutput, info1.reserveIn, info1.reserveOut);\r\n\t// \t\t}\t\t\r\n\t// \t}\r\n\r\n\t// \treturn TriOpportunity(\r\n\t// \t\tinfo1.tokenIn, info1.tokenOut, info2.tokenOut,\r\n\t// \t\tinfo1.poolAddress, info2.poolAddress, info3.poolAddress, \r\n\t// \t\tinfo1.optimalInput, info1.optimalOutput, info2.optimalOutput, info3.optimalOutput, \r\n\t// \t\tinfo3.optimalOutput > info1.optimalInput ? info3.optimalOutput - info1.optimalInput : 0\r\n\t// \t);\r\n\t// }\r\n\r\n\tfunction sortTokens(address tokenIn, address tokenOut)\r\n        internal\r\n        pure\r\n        returns (address tokenA, address tokenB)\r\n    {\r\n        require(tokenIn != tokenOut, \"UniswapV2Library: IDENTICAL_ADDRESSES\");\r\n        (tokenA, tokenB) = tokenIn < tokenOut\r\n            ? (tokenIn, tokenOut)\r\n            : (tokenOut, tokenIn);\r\n        require(tokenA != address(0), \"UniswapV2Library: ZERO_ADDRESS\");\r\n    }\r\n\t\r\n\tfallback() external payable {}\r\n\r\n    receive() external payable {}\r\n}\r\n",
	"sourcePath": "C:/Users/Paul/Desktop/cryptoarb/branches/master/contracts/DEX-Arbitrage/contracts/Opportunity/OptimizerTrade.sol",
	"compiler": {
		"name": "solc",
		"version": "0.7.4+commit.3f05b770.Emscripten.clang"
	},
	"schemaVersion": "3.3.1",
	"updatedAt": "2021-06-15T23:46:24.101Z",
	"networkType": "ethereum",
	"devdoc": {
		"kind": "dev",
		"methods": {},
		"version": 1
	},
	"userdoc": {
		"kind": "user",
		"methods": {},
		"version": 1
	}
}