{
	"contractName": "OptimizerTrade",
	"abi": [
		{
			"inputs": [
				{
					"internalType": "address",
					"name": "uniswapFactory",
					"type": "address"
				},
				{
					"internalType": "address payable",
					"name": "exec",
					"type": "address"
				}
			],
			"stateMutability": "payable",
			"type": "constructor",
			"payable": true
		},
		{
			"anonymous": false,
			"inputs": [
				{
					"indexed": false,
					"internalType": "string",
					"name": "reason",
					"type": "string"
				}
			],
			"name": "ErrorHandled",
			"type": "event"
		},
		{
			"anonymous": false,
			"inputs": [
				{
					"indexed": false,
					"internalType": "address",
					"name": "token1",
					"type": "address"
				},
				{
					"indexed": false,
					"internalType": "address",
					"name": "token2",
					"type": "address"
				},
				{
					"indexed": false,
					"internalType": "uint256",
					"name": "inputWei",
					"type": "uint256"
				},
				{
					"indexed": false,
					"internalType": "uint256",
					"name": "innerWei",
					"type": "uint256"
				},
				{
					"indexed": false,
					"internalType": "uint256",
					"name": "outputWei",
					"type": "uint256"
				},
				{
					"indexed": false,
					"internalType": "uint256",
					"name": "diff",
					"type": "uint256"
				}
			],
			"name": "simpleOppEvent",
			"type": "event"
		},
		{
			"anonymous": false,
			"inputs": [
				{
					"indexed": false,
					"internalType": "address",
					"name": "token1",
					"type": "address"
				},
				{
					"indexed": false,
					"internalType": "address",
					"name": "token2",
					"type": "address"
				},
				{
					"indexed": false,
					"internalType": "address",
					"name": "token3",
					"type": "address"
				},
				{
					"indexed": false,
					"internalType": "uint256",
					"name": "input1",
					"type": "uint256"
				},
				{
					"indexed": false,
					"internalType": "uint256",
					"name": "output1",
					"type": "uint256"
				},
				{
					"indexed": false,
					"internalType": "uint256",
					"name": "output2",
					"type": "uint256"
				},
				{
					"indexed": false,
					"internalType": "uint256",
					"name": "output3",
					"type": "uint256"
				},
				{
					"indexed": false,
					"internalType": "uint256",
					"name": "diff",
					"type": "uint256"
				}
			],
			"name": "triOppEvent",
			"type": "event"
		},
		{
			"stateMutability": "payable",
			"type": "fallback",
			"payable": true
		},
		{
			"stateMutability": "payable",
			"type": "receive",
			"payable": true
		},
		{
			"inputs": [],
			"name": "withdrawEth",
			"outputs": [],
			"stateMutability": "nonpayable",
			"type": "function"
		},
		{
			"inputs": [
				{
					"internalType": "address",
					"name": "token",
					"type": "address"
				}
			],
			"name": "withdrawErc20",
			"outputs": [],
			"stateMutability": "nonpayable",
			"type": "function"
		},
		{
			"inputs": [
				{
					"internalType": "address payable",
					"name": "newOwner",
					"type": "address"
				}
			],
			"name": "changeOwner",
			"outputs": [],
			"stateMutability": "nonpayable",
			"type": "function"
		},
		{
			"inputs": [
				{
					"internalType": "address",
					"name": "newAddress",
					"type": "address"
				}
			],
			"name": "changeUniswapFactory",
			"outputs": [],
			"stateMutability": "nonpayable",
			"type": "function"
		},
		{
			"inputs": [
				{
					"internalType": "bytes[]",
					"name": "calls",
					"type": "bytes[]"
				}
			],
			"name": "simpleMulticall",
			"outputs": [],
			"stateMutability": "nonpayable",
			"type": "function"
		},
		{
			"inputs": [
				{
					"internalType": "bytes[]",
					"name": "calls",
					"type": "bytes[]"
				}
			],
			"name": "triMulticall",
			"outputs": [],
			"stateMutability": "nonpayable",
			"type": "function"
		}
	],
	"bytecode": "0x608060405260405162003baf38038062003baf8339810160408190526200002691620001ba565b600280546001600160a01b038084166001600160a01b031992831617909255600080549285169282169290921790915560018054909116331790556200007d612710620004e7620000a0602090811b91909117901c565b600380546001600160801b03191660809290921c91909117905550620002119050565b600081620000b15750600062000108565b816000620000bf826200010d565b90506070811015620000da578060700382901b9150620000ee565b6070811115620000ee576070810382901c91505b613fff0160701b6001600160701b03919091161760801b90505b919050565b60008082116200011c57600080fd5b6000600160801b83106200013257608092831c92015b6801000000000000000083106200014b57604092831c92015b64010000000083106200016057602092831c92015b6201000083106200017357601092831c92015b61010083106200018557600892831c92015b601083106200019657600492831c92015b60048310620001a757600292831c92015b60028310620001b4576001015b92915050565b60008060408385031215620001cd578182fd5b8251620001da81620001f8565b6020840151909250620001ed81620001f8565b809150509250929050565b6001600160a01b03811681146200020e57600080fd5b50565b61398e80620002216000396000f3fe6080604052600436106100695760003560e01c8063c7e42b1b11610043578063c7e42b1b146100c7578063e48ad60d146100e7578063ee6b9d921461010757610070565b806380caa60514610072578063a0ef91df14610092578063a6f9dae1146100a757610070565b3661007057005b005b34801561007e57600080fd5b5061007061008d366004613163565b610127565b34801561009e57600080fd5b5061007061019a565b3480156100b357600080fd5b506100706100c2366004613124565b610223565b3480156100d357600080fd5b506100706100e2366004613124565b6102a1565b3480156100f357600080fd5b50610070610102366004613124565b6103fb565b34801561011357600080fd5b50610070610122366004613163565b610479565b60005b818110156101955761018d83838381811061014157fe5b905060200281019061015391906137f8565b8080601f01602080910402602001604051908101604052809392919081815260200183838082843760009201919091525061055492505050565b60010161012a565b505050565b6001546001600160a01b031633146101e7576040517f08c379a00000000000000000000000000000000000000000000000000000000081526004016101de906136fe565b60405180910390fd5b6001546040516001600160a01b03909116904780156108fc02916000818181858888f19350505050158015610220573d6000803e3d6000fd5b50565b6001546001600160a01b03163314610267576040517f08c379a00000000000000000000000000000000000000000000000000000000081526004016101de906136fe565b600180547fffffffffffffffffffffffff0000000000000000000000000000000000000000166001600160a01b0392909216919091179055565b6001546001600160a01b031633146102e5576040517f08c379a00000000000000000000000000000000000000000000000000000000081526004016101de906136fe565b6001546040517f70a0823100000000000000000000000000000000000000000000000000000000815282916001600160a01b038084169263a9059cbb929091169083906370a082319061033c903090600401613463565b60206040518083038186803b15801561035457600080fd5b505afa158015610368573d6000803e3d6000fd5b505050506040513d601f19601f8201168201806040525081019061038c91906133af565b6040518363ffffffff1660e01b81526004016103a9929190613477565b602060405180830381600087803b1580156103c357600080fd5b505af11580156103d7573d6000803e3d6000fd5b505050506040513d601f19601f8201168201806040525081019061019591906131d2565b6001546001600160a01b0316331461043f576040517f08c379a00000000000000000000000000000000000000000000000000000000081526004016101de906136fe565b600080547fffffffffffffffffffffffff0000000000000000000000000000000000000000166001600160a01b0392909216919091179055565b60005b81811015610195576104df83838381811061049357fe5b90506020028101906104a591906137f8565b8080601f01602080910402602001604051908101604052809392919081815260200183838082843760009201919091525061073492505050565b60010161047c565b6000816104f65750600061054f565b81600061050282610923565b9050607081101561051b578060700382901b915061052e565b607081111561052e576070810382901c91505b613fff0160701b6dffffffffffffffffffffffffffff919091161760801b90505b919050565b61055c612f78565b818060200190518101906105709190613232565b905061057a612fa6565b610583826109d4565b60e08101519091501561071c577fb9b9d5083ab8550f4f9228ff80dd4853c7da58e0954e1253145f7c70d84a86088160000151826020015183608001518460a001518560c001518660e001516040516105e1969594939291906135ad565b60405180910390a160025481516020808401516040808601516060870151608088015160a089015160c08a015194516001600160a01b0390991698638788d0829861063c9890979687969594859490939092600091016134aa565b6040516020818303038152906040526040518263ffffffff1660e01b81526004016106679190613620565b600060405180830381600087803b15801561068157600080fd5b505af1925050508015610692575060015b61071c5761069e613861565b806106a957506106e6565b7f4f17d5cf0427b4fe5e5649c407d3021315cfaa7216c9e58c369ef3937c40801a816040516106d89190613620565b60405180910390a15061071c565b7f4f17d5cf0427b4fe5e5649c407d3021315cfaa7216c9e58c369ef3937c40801a60405161071390613633565b60405180910390a15b610724612fa6565b905061072e612f78565b50505050565b61073c61300f565b8180602001905181019061075091906132bc565b905061075a61304b565b610763826111eb565b61014081015190915015610911577f80bb8e6f1681b49e38c6007a97ecea59d247ab5c50efd684eab93e6f134aaf198160000151826020015183604001518460c001518560e001518661010001518761012001518861014001516040516107d1989796959493929190613566565b60405180910390a160025481516020808401516040808601516060870151608088015160a089015160c08a015160e08b01516101008c01516101208d015197516001600160a01b03909c169b638788d0829b6108319b909a999101613509565b6040516020818303038152906040526040518263ffffffff1660e01b815260040161085c9190613620565b600060405180830381600087803b15801561087657600080fd5b505af1925050508015610887575060015b61091157610893613861565b8061089e57506108db565b7f4f17d5cf0427b4fe5e5649c407d3021315cfaa7216c9e58c369ef3937c40801a816040516108cd9190613620565b60405180910390a150610911565b7f4f17d5cf0427b4fe5e5649c407d3021315cfaa7216c9e58c369ef3937c40801a60405161090890613633565b60405180910390a15b61091961304b565b905061072e61300f565b600080821161093157600080fd5b6000700100000000000000000000000000000000831061095357608092831c92015b68010000000000000000831061096b57604092831c92015b640100000000831061097f57602092831c92015b62010000831061099157601092831c92015b61010083106109a257600892831c92015b601083106109b257600492831c92015b600483106109c257600292831c92015b600283106109ce576001015b92915050565b6109dc612fa6565b6109e46130a7565b60405180610140016040528084600001516001600160a01b0316815260200184602001516001600160a01b0316815260200160008152602001600081526020016000815260200160008152602001600060801b6fffffffffffffffffffffffffffffffff19168152602001600060801b6fffffffffffffffffffffffffffffffff1916815260200160006001600160a01b0316815260200184604001516001600160a01b031663c45a01556040518163ffffffff1660e01b815260040160206040518083038186803b158015610ab957600080fd5b505afa158015610acd573d6000803e3d6000fd5b505050506040513d601f19601f82011682018060405250810190610af19190613147565b6001600160a01b031690529050610b066130a7565b60405180610140016040528085602001516001600160a01b0316815260200185600001516001600160a01b0316815260200160008152602001600081526020016000815260200160008152602001600060801b6fffffffffffffffffffffffffffffffff19168152602001600060801b6fffffffffffffffffffffffffffffffff1916815260200160006001600160a01b0316815260200185606001516001600160a01b031663c45a01556040518163ffffffff1660e01b815260040160206040518083038186803b158015610bdb57600080fd5b505afa158015610bef573d6000803e3d6000fd5b505050506040513d601f19601f82011682018060405250810190610c139190613147565b6001600160a01b03168152509050610c2f828560800151612158565b9150610c3f818560800151612158565b60808301519091501580610c55575060a0820151155b80610c6257506080810151155b80610c6f575060a0810151155b15610cfa5760405180610100016040528083600001516001600160a01b0316815260200183602001516001600160a01b031681526020018361010001516001600160a01b031681526020018261010001516001600160a01b0316815260200183604001518152602001836060015181526020018260600151815260200160008152509250505061054f565b73__OptimizersTrade_______________________6388fa965c8360c001518360e001518560a001516040518463ffffffff1660e01b8152600401610d41939291906135e3565b60206040518083038186803b158015610d5957600080fd5b505af4158015610d6d573d6000803e3d6000fd5b505050506040513d601f19601f82011682018060405250810190610d9191906133af565b6060830181905215610e375783604001516001600160a01b03166385f8c259836060015184608001518560a001516040518463ffffffff1660e01b8152600401610ddd939291906137e2565b60206040518083038186803b158015610df557600080fd5b505afa158015610e09573d6000803e3d6000fd5b505050506040513d601f19601f82011682018060405250810190610e2d91906133af565b6040830152610ebd565b60405180610100016040528083600001516001600160a01b0316815260200183602001516001600160a01b031681526020018361010001516001600160a01b031681526020018261010001516001600160a01b0316815260200183604001518152602001836060015181526020018260600151815260200160008152509250505061054f565b73__OptimizersTrade_______________________6388fa965c8260c001518460e001518460a001516040518463ffffffff1660e01b8152600401610f04939291906135e3565b60206040518083038186803b158015610f1c57600080fd5b505af4158015610f30573d6000803e3d6000fd5b505050506040513d601f19601f82011682018060405250810190610f5491906133af565b6060820181905215610e375783606001516001600160a01b03166385f8c259826060015183608001518460a001516040518463ffffffff1660e01b8152600401610fa0939291906137e2565b60206040518083038186803b158015610fb857600080fd5b505afa158015610fcc573d6000803e3d6000fd5b505050506040513d601f19601f82011682018060405250810190610ff091906133af565b6040820181905260608301511161109b5783606001516001600160a01b031663054d50d4836060015183608001518460a001516040518463ffffffff1660e01b8152600401611041939291906137e2565b60206040518083038186803b15801561105957600080fd5b505afa15801561106d573d6000803e3d6000fd5b505050506040513d601f19601f8201168201806040525081019061109191906133af565b6060820152611147565b6040810151156111475783604001516001600160a01b03166385f8c259826040015184608001518560a001516040518463ffffffff1660e01b81526004016110e5939291906137e2565b60206040518083038186803b1580156110fd57600080fd5b505afa158015611111573d6000803e3d6000fd5b505050506040513d601f19601f8201168201806040525081019061113591906133af565b60408084019190915281015160608301525b60405180610100016040528083600001516001600160a01b0316815260200183602001516001600160a01b031681526020018361010001516001600160a01b031681526020018261010001516001600160a01b0316815260200183604001518152602001836060015181526020018260600151815260200183604001518360600151116111d55760006111e1565b83604001518360600151035b9052949350505050565b6111f361304b565b6111fb6130a7565b60405180610140016040528084600001516001600160a01b0316815260200184602001516001600160a01b0316815260200160008152602001600081526020016000815260200160008152602001600060801b6fffffffffffffffffffffffffffffffff19168152602001600060801b6fffffffffffffffffffffffffffffffff1916815260200160006001600160a01b0316815260200184606001516001600160a01b031663c45a01556040518163ffffffff1660e01b815260040160206040518083038186803b1580156112d057600080fd5b505afa1580156112e4573d6000803e3d6000fd5b505050506040513d601f19601f820116820180604052508101906113089190613147565b6001600160a01b03169052905061131d6130a7565b60405180610140016040528085602001516001600160a01b0316815260200185604001516001600160a01b0316815260200160008152602001600081526020016000815260200160008152602001600060801b6fffffffffffffffffffffffffffffffff19168152602001600060801b6fffffffffffffffffffffffffffffffff1916815260200160006001600160a01b0316815260200185608001516001600160a01b031663c45a01556040518163ffffffff1660e01b815260040160206040518083038186803b1580156113f257600080fd5b505afa158015611406573d6000803e3d6000fd5b505050506040513d601f19601f8201168201806040525081019061142a9190613147565b6001600160a01b03169052905061143f6130a7565b60405180610140016040528086604001516001600160a01b0316815260200186600001516001600160a01b0316815260200160008152602001600081526020016000815260200160008152602001600060801b6fffffffffffffffffffffffffffffffff19168152602001600060801b6fffffffffffffffffffffffffffffffff1916815260200160006001600160a01b031681526020018660a001516001600160a01b031663c45a01556040518163ffffffff1660e01b815260040160206040518083038186803b15801561151457600080fd5b505afa158015611528573d6000803e3d6000fd5b505050506040513d601f19601f8201168201806040525081019061154c9190613147565b6001600160a01b03168152509050611568838660c00151612158565b9250611578828660c00151612158565b9150611588818660c00151612158565b6080840151909150158061159e575060a0830151155b806115ab57506080820151155b806115b8575060a0820151155b806115c557506080810151155b806115d2575060a0810151155b1561168f5760405180610160016040528084600001516001600160a01b0316815260200184602001516001600160a01b0316815260200183602001516001600160a01b031681526020018461010001516001600160a01b031681526020018361010001516001600160a01b031681526020018261010001516001600160a01b03168152602001846040015181526020018460600151815260200183606001518152602001826060015181526020016000815250935050505061054f565b73__OptimizersTrade_______________________6388fa965c8460c001516116c08560e001518560e0015161241e565b8660a001516040518463ffffffff1660e01b81526004016116e3939291906135e3565b60206040518083038186803b1580156116fb57600080fd5b505af415801561170f573d6000803e3d6000fd5b505050506040513d601f19601f8201168201806040525081019061173391906133af565b60608401819052156117d95784606001516001600160a01b03166385f8c259846060015185608001518660a001516040518463ffffffff1660e01b815260040161177f939291906137e2565b60206040518083038186803b15801561179757600080fd5b505afa1580156117ab573d6000803e3d6000fd5b505050506040513d601f19601f820116820180604052508101906117cf91906133af565b6040840152611891565b60405180610160016040528084600001516001600160a01b0316815260200184602001516001600160a01b0316815260200183602001516001600160a01b031681526020018461010001516001600160a01b031681526020018361010001516001600160a01b031681526020018261010001516001600160a01b03168152602001846040015181526020018460600151815260200183606001518152602001826060015181526020016000815250935050505061054f565b73__OptimizersTrade_______________________6388fa965c8360c001516118c28460e001518760e0015161241e565b8560a001516040518463ffffffff1660e01b81526004016118e5939291906135e3565b60206040518083038186803b1580156118fd57600080fd5b505af4158015611911573d6000803e3d6000fd5b505050506040513d601f19601f8201168201806040525081019061193591906133af565b60608301819052156117d95784608001516001600160a01b03166385f8c259836060015184608001518560a001516040518463ffffffff1660e01b8152600401611981939291906137e2565b60206040518083038186803b15801561199957600080fd5b505afa1580156119ad573d6000803e3d6000fd5b505050506040513d601f19601f820116820180604052508101906119d191906133af565b604083015273__OptimizersTrade_______________________6388fa965c8260c00151611a078660e001518660e0015161241e565b8460a001516040518463ffffffff1660e01b8152600401611a2a939291906135e3565b60206040518083038186803b158015611a4257600080fd5b505af4158015611a56573d6000803e3d6000fd5b505050506040513d601f19601f82011682018060405250810190611a7a91906133af565b60608201819052156117d9578460a001516001600160a01b03166385f8c259826060015183608001518460a001516040518463ffffffff1660e01b8152600401611ac6939291906137e2565b60206040518083038186803b158015611ade57600080fd5b505afa158015611af2573d6000803e3d6000fd5b505050506040513d601f19601f82011682018060405250810190611b1691906133af565b60408201528160400151836060015111611dcf5784608001516001600160a01b031663054d50d4846060015184608001518560a001516040518463ffffffff1660e01b8152600401611b6a939291906137e2565b60206040518083038186803b158015611b8257600080fd5b505afa158015611b96573d6000803e3d6000fd5b505050506040513d601f19601f82011682018060405250810190611bba91906133af565b60608301819052604082015110611c65578460a001516001600160a01b031663054d50d4836060015183608001518460a001516040518463ffffffff1660e01b8152600401611c0b939291906137e2565b60206040518083038186803b158015611c2357600080fd5b505afa158015611c37573d6000803e3d6000fd5b505050506040513d601f19601f82011682018060405250810190611c5b91906133af565b6060820152611dca565b604080820151606084018190526080808801519085015160a086015193517f85f8c2590000000000000000000000000000000000000000000000000000000081526001600160a01b03909216936385f8c25993611cc893909291906004016137e2565b60206040518083038186803b158015611ce057600080fd5b505afa158015611cf4573d6000803e3d6000fd5b505050506040513d601f19601f82011682018060405250810190611d1891906133af565b6060808501829052860151608085015160a08601516040517f85f8c2590000000000000000000000000000000000000000000000000000000081526001600160a01b03909316936385f8c25993611d74939192906004016137e2565b60206040518083038186803b158015611d8c57600080fd5b505afa158015611da0573d6000803e3d6000fd5b505050506040513d601f19601f82011682018060405250810190611dc491906133af565b60408401525b612082565b8060400151826060015111611f1d578460a001516001600160a01b03166385f8c259836060015183608001518460a001516040518463ffffffff1660e01b8152600401611e1e939291906137e2565b60206040518083038186803b158015611e3657600080fd5b505afa158015611e4a573d6000803e3d6000fd5b505050506040513d601f19601f82011682018060405250810190611e6e91906133af565b81606001818152505084606001516001600160a01b03166385f8c259836060015185608001518660a001516040518463ffffffff1660e01b8152600401611eb7939291906137e2565b60206040518083038186803b158015611ecf57600080fd5b505afa158015611ee3573d6000803e3d6000fd5b505050506040513d601f19601f82011682018060405250810190611f0791906133af565b6040808501919091528201516060840152612082565b604080820151606084018190526080808801519085015160a086015193517f85f8c2590000000000000000000000000000000000000000000000000000000081526001600160a01b03909216936385f8c25993611f8093909291906004016137e2565b60206040518083038186803b158015611f9857600080fd5b505afa158015611fac573d6000803e3d6000fd5b505050506040513d601f19601f82011682018060405250810190611fd091906133af565b6060808501829052860151608085015160a08601516040517f85f8c2590000000000000000000000000000000000000000000000000000000081526001600160a01b03909316936385f8c2599361202c939192906004016137e2565b60206040518083038186803b15801561204457600080fd5b505afa158015612058573d6000803e3d6000fd5b505050506040513d601f19601f8201168201806040525081019061207c91906133af565b60408401525b60405180610160016040528084600001516001600160a01b0316815260200184602001516001600160a01b0316815260200183602001516001600160a01b031681526020018461010001516001600160a01b031681526020018361010001516001600160a01b031681526020018261010001516001600160a01b0316815260200184604001518152602001846060015181526020018360600151815260200182606001518152602001846040015183606001511161214157600061214d565b84604001518360600151035b905295945050505050565b6121606130a7565b610120830151835160208501516040517fe6a439050000000000000000000000000000000000000000000000000000000081526001600160a01b039093169263e6a43905926121b3929091600401613490565b60206040518083038186803b1580156121cb57600080fd5b505afa1580156121df573d6000803e3d6000fd5b505050506040513d601f19601f820116820180604052508101906122039190613147565b6001600160a01b0316610100840181905261221f5750816109ce565b600061223384600001518560200151612863565b5090506000808561010001516001600160a01b0316630902f1ac6040518163ffffffff1660e01b815260040160606040518083038186803b15801561227757600080fd5b505afa15801561228b573d6000803e3d6000fd5b505050506040513d601f19601f820116820180604052508101906122af9190613361565b5091509150826001600160a01b031686600001516001600160a01b0316146122d85780826122db565b81815b6dffffffffffffffffffffffffffff90811660a08901521660808701525073__OptimizersTrade_______________________915063a8b2c25290508461232f612324866104e7565b60035460801b612921565b6040518363ffffffff1660e01b815260040161234c929190613735565b60206040518083038186803b15801561236457600080fd5b505af4158015612378573d6000803e3d6000fd5b505050506040513d601f19601f8201168201806040525081019061239c91906131f2565b7fffffffffffffffffffffffffffffffff000000000000000000000000000000001660c084015260a08301516123f0906123eb906123d9906104e7565b6123e686608001516104e7565b612921565b612d2e565b7fffffffffffffffffffffffffffffffff000000000000000000000000000000001660e08401525090919050565b6000617fff60f084811c8216919084901c81169082141561259e5780617fff141561251f577fffffffffffffffffffffffffffffffff00000000000000000000000000000000858116908516141561249d575050507f8000000000000000000000000000000000000000000000000000000000000000811682186109ce565b7f80000000000000000000000000000000000000000000000000000000000000007fffffffffffffffffffffffffffffffff000000000000000000000000000000008686181614156124f4575050508181176109ce565b507f7fff80000000000000000000000000000000000000000000000000000000000091506109ce9050565b7f7fffffffffffffffffffffffffffffff00000000000000000000000000000000841661257157507f7fff80000000000000000000000000000000000000000000000000000000000091506109ce9050565b5050507f8000000000000000000000000000000000000000000000000000000000000000811682186109ce565b80617fff1415612627577f7fffffffffffffffffffffffffffffff0000000000000000000000000000000085166125fa57507f7fff80000000000000000000000000000000000000000000000000000000000091506109ce9050565b5050507f8000000000000000000000000000000000000000000000000000000000000000821681186109ce565b6dffffffffffffffffffffffffffff608086901c168261264a576001925061265c565b6e010000000000000000000000000000175b6dffffffffffffffffffffffffffff608086901c168261267f5760019250612691565b6e010000000000000000000000000000175b90810290816126f7577f8000000000000000000000000000000000000000000000000000000000000000878718166126ca5760006126ec565b7f80000000000000000000000000000000000000000000000000000000000000005b9450505050506109ce565b9282019260007c020000000000000000000000000000000000000000000000000000000083101561275d577c01000000000000000000000000000000000000000000000000000000008310156127555761275083610923565b612758565b60e05b612760565b60e15b9050614070818601101561277b57600094506000925061281f565b6140e081860110156127be576140708510156127a057846140700383901c92506127b5565b6140708511156127b557614070850383901b92505b6000945061281f565b61c0dd81860111156127d857617fff94506000925061281f565b60708111156127ef576070810383901c9250612802565b6070811015612802578060700383901b92505b6dffffffffffffffffffffffffffff831692506140df8186010394505b82607086901b888a186f8000000000000000000000000000000060801b1660801c6fffffffffffffffffffffffffffffffff16171760801b955050505050506109ce565b600080826001600160a01b0316846001600160a01b031614156128b2576040517f08c379a00000000000000000000000000000000000000000000000000000000081526004016101de9061366a565b826001600160a01b0316846001600160a01b0316106128d25782846128d5565b83835b90925090506001600160a01b03821661291a576040517f08c379a00000000000000000000000000000000000000000000000000000000081526004016101de906136c7565b9250929050565b6000617fff60f084811c8216919084901c8116908214156129715780617fff141561257157507f7fff80000000000000000000000000000000000000000000000000000000000091506109ce9050565b80617fff14156129f9577dffffffffffffffffffffffffffff000000000000000000000000000000008416156129cc57507f7fff80000000000000000000000000000000000000000000000000000000000091506109ce9050565b5050508082187f8000000000000000000000000000000000000000000000000000000000000000166109ce565b7f7fffffffffffffffffffffffffffffff000000000000000000000000000000008416612ac1577f7fffffffffffffffffffffffffffffff000000000000000000000000000000008516612a7257507f7fff80000000000000000000000000000000000000000000000000000000000091506109ce9050565b5050508082187f8000000000000000000000000000000000000000000000000000000000000000167f7fff000000000000000000000000000000000000000000000000000000000000176109ce565b6dffffffffffffffffffffffffffff608085901c1681612ae45760019150612af6565b6e010000000000000000000000000000175b6dffffffffffffffffffffffffffff608087901c1683612b5a578015612b55576000612b2182610923565b6001955060e2039384017fffffffffffffffffffffffffffffffffffffffffffffffffffffffffffffff8e01939190911b90505b612b6f565b6e0100000000000000000000000000001760721b5b818181612b7857fe5b04905080612bb0577f8000000000000000000000000000000000000000000000000000000000000000878718166126ca5760006126ec565b6d1000000000000000000000000000811015612bc857fe5b60006e080000000000000000000000000000821015612c29576e040000000000000000000000000000821015612c1e576e020000000000000000000000000000821015612c16576070612c19565b60715b612c21565b60725b60ff16612c32565b612c3282610923565b905083614071018186011115612c5057617fff945060009150612cea565b83818601613ffc011015612c6b576000945060009150612cea565b83818601613f8c011015612cb8578385613ffc011115612c96578385613ffc010382901b9150612caf565b8385613ffc011015612caf57613ffc8585030382901c91505b60009450612cea565b6070811115612ccb576070810382901c91505b6dffffffffffffffffffffffffffff8216915083818601613f8d010394505b81607086901b888a186f8000000000000000000000000000000060801b1660801c6fffffffffffffffffffffffffffffffff16171760801b955050505050506109ce565b60006f80000000000000000000000000000000608083901c1115612d7357507f7fff80000000000000000000000000000000000000000000000000000000000061054f565b617fff60f083901c811690811415612d8e578291505061054f565b6dffffffffffffffffffffffffffff608084901c1681612db15760019150612dc3565b6e010000000000000000000000000000175b80612dd457506000915061054f9050565b613fff8201600190811c9216158015612e50576e0100000000000000000000000000008210612e0957607182901b9150612e4b565b6000612e1483610923565b60e20360fe167fffffffffffffffffffffffffffffffffffffffffffffffffffffffffffffff90810160011c909403939290921b91505b612eb4565b6e0100000000000000000000000000008210612e7257607082901b9150612eb4565b6000612e7d83610923565b60e10360fe167fffffffffffffffffffffffffffffffffffffffffffffffffffffffffffffff90810160011c909403939290921b91505b6e01000000000000000000000000000080830401600190811c90818481612ed757fe5b048201901c90506001818481612ee957fe5b048201901c90506001818481612efb57fe5b048201901c90506001818481612f0d57fe5b048201901c90506001818481612f1f57fe5b048201901c90506001818481612f3157fe5b048201901c90506000818481612f4357fe5b04905081811015612f52578091505b816dffffffffffffffffffffffffffff16607086901b1760801b9550505050505061054f565b6040805160a08101825260008082526020820181905291810182905260608101829052608081019190915290565b60405180610100016040528060006001600160a01b0316815260200160006001600160a01b0316815260200160006001600160a01b0316815260200160006001600160a01b03168152602001600081526020016000815260200160008152602001600081525090565b6040805160e081018252600080825260208201819052918101829052606081018290526080810182905260a0810182905260c081019190915290565b6040805161016081018252600080825260208201819052918101829052606081018290526080810182905260a0810182905260c0810182905260e081018290526101008101829052610120810182905261014081019190915290565b6040805161014081018252600080825260208201819052918101829052606081018290526080810182905260a0810182905260c0810182905260e08101829052610100810182905261012081019190915290565b805161054f81613943565b80516dffffffffffffffffffffffffffff8116811461054f57600080fd5b600060208284031215613135578081fd5b813561314081613943565b9392505050565b600060208284031215613158578081fd5b815161314081613943565b60008060208385031215613175578081fd5b823567ffffffffffffffff8082111561318c578283fd5b818501915085601f83011261319f578283fd5b8135818111156131ad578384fd5b86602080830285010111156131c0578384fd5b60209290920196919550909350505050565b6000602082840312156131e3578081fd5b81518015158114613140578182fd5b600060208284031215613203578081fd5b81517fffffffffffffffffffffffffffffffff0000000000000000000000000000000081168114613140578182fd5b600060a08284031215613243578081fd5b60405160a0810181811067ffffffffffffffff8211171561326057fe5b604052825161326e81613943565b8152602083015161327e81613943565b6020820152604083015161329181613943565b604082015260608301516132a481613943565b60608201526080928301519281019290925250919050565b600060e082840312156132cd578081fd5b60405160e0810181811067ffffffffffffffff821117156132ea57fe5b6040526132f6836130fb565b8152613304602084016130fb565b6020820152613315604084016130fb565b6040820152613326606084016130fb565b6060820152613337608084016130fb565b608082015261334860a084016130fb565b60a082015260c083015160c08201528091505092915050565b600080600060608486031215613375578081fd5b61337e84613106565b925061338c60208501613106565b9150604084015163ffffffff811681146133a4578182fd5b809150509250925092565b6000602082840312156133c0578081fd5b5051919050565b6001600160a01b03169052565b7fffffffffffffffffffffffffffffffff00000000000000000000000000000000169052565b60008151808452815b8181101561341f57602081850181015186830182015201613403565b818111156134305782602083870101525b50601f017fffffffffffffffffffffffffffffffffffffffffffffffffffffffffffffffe0169290920160200192915050565b6001600160a01b0391909116815260200190565b6001600160a01b03929092168252602082015260400190565b6001600160a01b0392831681529116602082015260400190565b6001600160a01b039a8b168152988a1660208a0152968916604089015294881660608801529287166080870152951660a085015260c084019490945260e083019390935261010082019290925260ff9091166101208201526101400190565b6001600160a01b039a8b168152988a1660208a0152968916604089015294881660608801529287166080870152951660a085015260c084019490945260e08301939093526101008201929092526101208101919091526101400190565b6001600160a01b03988916815296881660208801529490961660408601526060850192909252608084015260a083015260c082019290925260e08101919091526101000190565b6001600160a01b03968716815294909516602085015260408401929092526060830152608082015260a081019190915260c00190565b7fffffffffffffffffffffffffffffffff000000000000000000000000000000009384168152919092166020820152604081019190915260600190565b60006020825261314060208301846133fa565b60208082526014908201527f4361756768742077697468206e6f206572726f72000000000000000000000000604082015260600190565b60208082526025908201527f556e697377617056324c6962726172793a204944454e544943414c5f4144445260408201527f4553534553000000000000000000000000000000000000000000000000000000606082015260800190565b6020808252601e908201527f556e697377617056324c6962726172793a205a45524f5f414444524553530000604082015260600190565b60208082526016908201527f53656e646572206e6f7420617574686f72697a65642e00000000000000000000604082015260600190565b6000610160820190506137498285516133c7565b602084015161375b60208401826133c7565b5060408401516040830152606084015160608301526080840151608083015260a084015160a083015260c084015161379660c08401826133d4565b5060e08401516137a960e08401826133d4565b50610100808501516137bd828501826133c7565b5050610120808501516137d2828501826133c7565b50506131406101408301846133d4565b9283526020830191909152604082015260600190565b60008083357fffffffffffffffffffffffffffffffffffffffffffffffffffffffffffffffe184360301811261382c578283fd5b83018035915067ffffffffffffffff821115613846578283fd5b60200191503681900382131561291a57600080fd5b60e01c90565b600060443d101561387157613940565b600481823e6308c379a0613885825161385b565b1461388f57613940565b6040517ffffffffffffffffffffffffffffffffffffffffffffffffffffffffffffffffc3d016004823e80513d67ffffffffffffffff81602484011181841117156138dd5750505050613940565b828401925082519150808211156138f75750505050613940565b503d8301602082840101111561390f57505050613940565b601f017fffffffffffffffffffffffffffffffffffffffffffffffffffffffffffffffe01681016020016040529150505b90565b6001600160a01b038116811461022057600080fdfea2646970667358221220b4c770702089db2f6fd7c32e7024353d44a813f9fbb259ea07fa2b94e399b06764736f6c63430007040033",
	"immutableReferences": {},
	"source": "pragma solidity >=0.6.0;\r\n// SPDX-License-Identifier: UNLICENSED\r\npragma experimental ABIEncoderV2;\r\nimport '../External/Uniswap.sol';\r\nimport './OptimizersTrade.sol';\r\nimport \"../External/IERC20.sol\";\r\nimport \"../Execution/TriArbNoRD.sol\";\r\n\r\ncontract OptimizerTrade {\r\n\taddress UniswapFactoryAddress; //For converting to std\r\n\taddress payable owner;\r\n\taddress payable execContract;\r\n\tbytes16 MP_MULT_DIVISOR;\r\n\r\n\tstruct SimpleCall {\r\n\t\taddress outerToken;\r\n\t\taddress innerToken;\r\n\t\taddress exchange1;\r\n\t\taddress exchange2;\r\n\t\tuint256 mpMultiplier;\r\n\t}\r\n\r\n\tstruct TriCall {\r\n\t\taddress token1;\r\n\t\taddress token2;\r\n\t\taddress token3;\r\n\t\taddress exchange1;\r\n\t\taddress exchange2;\r\n\t\taddress exchange3;\r\n\t\tuint256 mpMultiplier;\r\n\t}\r\n\r\n\tstruct Opportunity {\r\n\t\taddress outerToken;\r\n\t\taddress innerToken;\r\n\t\taddress awayPool;\r\n\t\taddress returnPool;\r\n\t\tuint256 inputWei;\r\n\t\tuint256 innerWei;\r\n\t\tuint256 outputWei;\r\n\t\tuint256 diff;\r\n\t}\r\n\r\n\tstruct TriOpportunity {\r\n\t\taddress token1;\r\n\t\taddress token2;\r\n\t\taddress token3;\r\n\t\taddress pool1;\r\n\t\taddress pool2;\r\n\t\taddress pool3;\r\n\t\tuint256 input1;\r\n\t\tuint256 output1; // == input2\r\n\t\tuint256 output2; // == input 3\r\n\t\tuint256 output3;\r\n\t\tuint256 diff;\r\n\t}\r\n\r\n\tstruct OptimalInfo {\r\n\t\taddress tokenIn;\r\n\t\taddress tokenOut;\r\n\t\tuint256 optimalInput;\r\n\t\tuint256 optimalOutput;\r\n\t\tuint256 reserveIn;\r\n\t\tuint256 reserveOut;\r\n\t\tbytes16 preMP;\r\n\t\tbytes16 rootMP; // need to add\r\n\t\taddress poolAddress;\r\n\t\taddress factory;\r\n\t}\r\n\r\n\tevent simpleOppEvent(\r\n\t\taddress token1,\r\n\t\taddress token2,\r\n\t\tuint256 inputWei,\r\n\t\tuint256 innerWei,\r\n\t\tuint256 outputWei,\r\n\t\tuint256 diff\r\n\t\t);\r\n\r\n\tevent triOppEvent(\r\n\t\taddress token1,\r\n\t\taddress token2,\r\n\t\taddress token3,\r\n\t\tuint256 input1,\r\n\t\tuint256 output1, // == input2\r\n\t\tuint256 output2, // == input 3\r\n\t\tuint256 output3,\r\n\t\tuint256 diff\r\n\t);\r\n\r\n\tevent ErrorHandled(string reason);\r\n\r\n\t//Create modifier to limit who can call the contract\r\n\tmodifier onlyOwner() {\r\n\t\trequire(msg.sender == owner, 'Sender not authorized.');\r\n\t\t// Do not forget the \"_;\"! It will\r\n\t\t// be replaced by the actual function\r\n\t\t// body when the modifier is used.\r\n\t\t_;\r\n\t}\r\n\r\n\tconstructor(address uniswapFactory, address payable exec) payable {\r\n\t\texecContract = exec;\r\n\t\tUniswapFactoryAddress = uniswapFactory;\r\n\t\towner = payable(msg.sender);\r\n\t\tMP_MULT_DIVISOR = ABDKFloat.fromUInt(10000);\r\n\t}\r\n\r\n    //Withdraws any ethereum from the address\r\n    function withdrawEth() public onlyOwner {\r\n        owner.transfer(address(this).balance);\r\n    }\r\n\r\n    //Withdraw a specific ERC20 token\r\n    function withdrawErc20(address token) external onlyOwner {\r\n        IERC20 newToken = IERC20(token);\r\n        newToken.transfer(owner, newToken.balanceOf(address(this)));\r\n    }\r\n\r\n    //Change the contract owner\r\n    function changeOwner(address payable newOwner) external onlyOwner {\r\n        owner = newOwner;\r\n    }\r\n\r\n\t//Change the router address\r\n\tfunction changeUniswapFactory(address newAddress) external onlyOwner {\r\n\t\tUniswapFactoryAddress = newAddress;\r\n\t}\r\n\r\n\tfunction simpleMulticall(bytes[] calldata calls) external{\r\n\t\tfor (uint i = 0; i < calls.length; i++) {\r\n\t\t\tgetOpportunityFromCall(calls[i]);\r\n\t\t}\r\n  }\r\n\r\n\tfunction triMulticall(bytes[] calldata calls) external{\r\n\t\tfor (uint i = 0; i < calls.length; i++) {\r\n\t\t\tgetTriOpportunityFromCall(calls[i]);\r\n\t\t}\r\n  }\r\n\r\n\tfunction getOpportunityFromCall(\r\n\t\tbytes memory call\r\n\t) internal{\r\n\t\tSimpleCall memory params = abi.decode(call, (SimpleCall));\r\n\t\tOpportunity memory opp = getOpportunity(params);\r\n\t\tif(opp.diff > 0){\r\n\t\t\temit simpleOppEvent(opp.outerToken, opp.innerToken, opp.inputWei, opp.innerWei, opp.outputWei, opp.diff);\r\n\t\t\ttry TriArbNoRD(execContract).initiateTrade(abi.encode(opp.outerToken, opp.innerToken, opp.innerToken, opp.awayPool, opp.returnPool, opp.returnPool, opp.inputWei, opp.innerWei, opp.outputWei, 0)){}\r\n\t\t\tcatch Error(string memory reason){\r\n\t\t\t\temit ErrorHandled(reason);\r\n\t\t\t}catch{\r\n\t\t\t\temit ErrorHandled('Caught with no error');\r\n\t\t\t}\r\n\t\t}\r\n\t\tdelete opp;\r\n\t\tdelete params;\r\n\t}\r\n\r\n\tfunction getTriOpportunityFromCall(\r\n\t\tbytes memory call\r\n\t) internal{\r\n\t\tTriCall memory params = abi.decode(call, (TriCall));\r\n\t\tTriOpportunity memory opp = getTriOpportunity(params);\r\n\t\tif(opp.diff > 0){\r\n\t\t\temit triOppEvent(opp.token1, opp.token2, opp.token3, opp.input1, opp.output1, opp.output2, opp.output3, opp.diff);\r\n\t\t\ttry TriArbNoRD(execContract).initiateTrade(abi.encode(opp.token1, opp.token2, opp.token3, opp.pool1, opp.pool2, opp.pool3, opp.input1, opp.output1, opp.output2, opp.output3)){}\r\n\t\t\tcatch Error(string memory reason){\r\n\t\t\t\temit ErrorHandled(reason);\r\n\t\t\t}catch{\r\n\t\t\t\temit ErrorHandled('Caught with no error');\r\n\t\t\t}\r\n\t\t}\r\n\t\tdelete opp;\r\n\t\tdelete params;\r\n\t}\r\n\r\n\tfunction getOpportunity(\r\n\t\tSimpleCall memory params\r\n\t\t//uint256 portion\r\n\t) internal view returns (Opportunity memory) {\r\n\t\tOptimalInfo memory awayInfo = OptimalInfo(\r\n\t\t\tparams.outerToken, // tokenIn\r\n\t\t\tparams.innerToken, // tokenOut\r\n\t\t\t0, // optimalInput\r\n\t\t\t0, // optimalOutput\r\n\t\t\t0, // reserveIn \r\n\t\t\t0, // reserveOut\r\n\t\t\tbytes16(0), // preMP\r\n\t\t\tbytes16(0),// rootMP\r\n\t\t\taddress(0), // poolAddress\r\n\t\t\tIUniswapV2Router02(params.exchange1).factory()\r\n\t\t);\r\n\t\tOptimalInfo memory returnInfo = OptimalInfo(\r\n\t\t\tparams.innerToken, // tokenIn\r\n\t\t\tparams.outerToken, // tokenOut\r\n\t\t\t0, // optimalInput\r\n\t\t\t0, // optimalOutput\r\n\t\t\t0, // reserveIn \r\n\t\t\t0, // reserveOut\r\n\t\t\tbytes16(0), // preMP\r\n\t\t\tbytes16(0),// rootMP\r\n\t\t\taddress(0), // poolAddress\r\n\t\t\tIUniswapV2Router02(params.exchange2).factory()\r\n\t\t);\r\n\t\tawayInfo = getAlmostAllOptimalInfo(awayInfo, params.mpMultiplier);\r\n\t\treturnInfo = getAlmostAllOptimalInfo(returnInfo, params.mpMultiplier);\r\n\r\n\t\tif(awayInfo.reserveIn <= 0 || awayInfo.reserveOut <= 0 || returnInfo.reserveIn <= 0 || returnInfo.reserveOut <= 0){\r\n\t\t\treturn Opportunity(\r\n\t\t\t\tawayInfo.tokenIn, \r\n\t\t\t\tawayInfo.tokenOut, \r\n\t\t\t\tawayInfo.poolAddress,\r\n\t\t\t\treturnInfo.poolAddress, \r\n\t\t\t\tawayInfo.optimalInput, \r\n\t\t\t\tawayInfo.optimalOutput, \r\n\t\t\t\treturnInfo.optimalOutput, \r\n\t\t\t\t0\r\n\t\t\t);\r\n\t\t}\r\n\r\n\t\t// \tMultiplying optimal away output by return mp, multiplying optimal return output by away mp\r\n\t\tawayInfo.optimalOutput = OptimizersTrade.getUniOutputGivenMp(awayInfo.preMP, returnInfo.rootMP, awayInfo.reserveOut);\r\n\t\tif(awayInfo.optimalOutput > 0){\r\n\t\t\tawayInfo.optimalInput = IUniswapV2Router02(params.exchange1).getAmountIn(awayInfo.optimalOutput, awayInfo.reserveIn, awayInfo.reserveOut);\r\n\t\t} else {\r\n\t\t\treturn Opportunity(\r\n\t\t\t\tawayInfo.tokenIn, \r\n\t\t\t\tawayInfo.tokenOut, \r\n\t\t\t\tawayInfo.poolAddress,\r\n\t\t\t\treturnInfo.poolAddress, \r\n\t\t\t\tawayInfo.optimalInput, \r\n\t\t\t\tawayInfo.optimalOutput, \r\n\t\t\t\treturnInfo.optimalOutput, \r\n\t\t\t\t0\r\n\t\t\t);\r\n\t\t}\r\n\r\n\t\treturnInfo.optimalOutput = OptimizersTrade.getUniOutputGivenMp(returnInfo.preMP, awayInfo.rootMP, returnInfo.reserveOut);\r\n\t\tif(returnInfo.optimalOutput > 0){\r\n\t\t\treturnInfo.optimalInput = IUniswapV2Router02(params.exchange2).getAmountIn(returnInfo.optimalOutput, returnInfo.reserveIn, returnInfo.reserveOut);\r\n\t\t} else {\r\n\t\t\treturn Opportunity(\r\n\t\t\t\tawayInfo.tokenIn, \r\n\t\t\t\tawayInfo.tokenOut, \r\n\t\t\t\tawayInfo.poolAddress,\r\n\t\t\t\treturnInfo.poolAddress, \r\n\t\t\t\tawayInfo.optimalInput, \r\n\t\t\t\tawayInfo.optimalOutput, \r\n\t\t\t\treturnInfo.optimalOutput, \r\n\t\t\t\t0\r\n\t\t\t);\r\n\t\t}\r\n\r\n\t\tif (awayInfo.optimalOutput <= returnInfo.optimalInput) {\r\n\t\t\t// recalc return using away's output as input\r\n\t\t\treturnInfo.optimalOutput = IUniswapV2Router02(params.exchange2).getAmountOut(awayInfo.optimalOutput, returnInfo.reserveIn, returnInfo.reserveOut);\r\n\t\t} else if(returnInfo.optimalInput > 0){\r\n\t\t\t// recalc away using return's input as output\r\n\t\t\tawayInfo.optimalInput = IUniswapV2Router02(params.exchange1).getAmountIn(returnInfo.optimalInput, awayInfo.reserveIn, awayInfo.reserveOut); \r\n\t\t\tawayInfo.optimalOutput = returnInfo.optimalInput;\r\n\t\t}\r\n\t\treturn Opportunity(\r\n\t\t\tawayInfo.tokenIn, \r\n\t\t\tawayInfo.tokenOut, \r\n\t\t\tawayInfo.poolAddress,\r\n\t\t\treturnInfo.poolAddress, \r\n\t\t\tawayInfo.optimalInput, \r\n\t\t\tawayInfo.optimalOutput, \r\n\t\t\treturnInfo.optimalOutput, \r\n\t\t\treturnInfo.optimalOutput > awayInfo.optimalInput ? returnInfo.optimalOutput - awayInfo.optimalInput : 0\r\n\t\t);\r\n\t}\r\n\r\n\tfunction getTriOpportunity (\r\n\t\tTriCall memory params\r\n\t) internal view returns (TriOpportunity memory) {\r\n\t\tOptimalInfo memory info1 = OptimalInfo(\r\n\t\t\tparams.token1, // tokenIn\r\n\t\t\tparams.token2, // tokenOut\r\n\t\t\t0, // optimalInput\r\n\t\t\t0, // optimalOutput\r\n\t\t\t0, // reserveIn \r\n\t\t\t0, // reserveOut\r\n\t\t\tbytes16(0), // preMP\r\n\t\t\tbytes16(0),// rootMP\r\n\t\t\taddress(0), // poolAddress\r\n\t\t\tIUniswapV2Router02(params.exchange1).factory()\r\n\t\t);\r\n\t\t\r\n\t\tOptimalInfo memory info2 = OptimalInfo(\r\n\t\t\tparams.token2, // tokenIn\r\n\t\t\tparams.token3, // tokenOut\r\n\t\t\t0, // optimalInput\r\n\t\t\t0, // optimalOutput\r\n\t\t\t0, // reserveIn \r\n\t\t\t0, // reserveOut\r\n\t\t\tbytes16(0), // preMP\r\n\t\t\tbytes16(0),// rootMP\r\n\t\t\taddress(0), // poolAddress\r\n\t\t\tIUniswapV2Router02(params.exchange2).factory()\r\n\t\t);\r\n\t\t\r\n\t\tOptimalInfo memory info3 = OptimalInfo(\r\n\t\t\tparams.token3, // tokenIn\r\n\t\t\tparams.token1, // tokenOut\r\n\t\t\t0, // optimalInput\r\n\t\t\t0, // optimalOutput\r\n\t\t\t0, // reserveIn \r\n\t\t\t0, // reserveOut\r\n\t\t\tbytes16(0), // preMP\r\n\t\t\tbytes16(0),// rootMP\r\n\t\t\taddress(0), // poolAddress\r\n\t\t\tIUniswapV2Router02(params.exchange3).factory()\r\n\t\t);\r\n\r\n\t\tinfo1 = getAlmostAllOptimalInfo(info1, params.mpMultiplier);\r\n\t\tinfo2 = getAlmostAllOptimalInfo(info2, params.mpMultiplier);\r\n\t\tinfo3 = getAlmostAllOptimalInfo(info3, params.mpMultiplier);\r\n\r\n\t\tif(info1.reserveIn <= 0 || info1.reserveOut <= 0 || info2.reserveIn <= 0 || info2.reserveOut <= 0 || info3.reserveIn <= 0 || info3.reserveOut <= 0){\r\n\t\t\treturn TriOpportunity(\r\n\t\t\t\tinfo1.tokenIn, info1.tokenOut, info2.tokenOut,\r\n\t\t\t\tinfo1.poolAddress, info2.poolAddress, info3.poolAddress, \r\n\t\t\t\tinfo1.optimalInput, info1.optimalOutput, info2.optimalOutput, info3.optimalOutput, \r\n\t\t\t\t0\r\n\t\t\t);\r\n\t\t}\r\n\r\n\t\tinfo1.optimalOutput = OptimizersTrade.getUniOutputGivenMp(info1.preMP, ABDKFloat.mul(info2.rootMP, info3.rootMP), info1.reserveOut);\r\n\t\tif(info1.optimalOutput > 0) {\r\n\t\t\tinfo1.optimalInput = IUniswapV2Router02(params.exchange1).getAmountIn(info1.optimalOutput, info1.reserveIn, info1.reserveOut);\r\n\t\t} else {\r\n\t\t\treturn TriOpportunity(\r\n\t\t\t\tinfo1.tokenIn, info1.tokenOut, info2.tokenOut,\r\n\t\t\t\tinfo1.poolAddress, info2.poolAddress, info3.poolAddress, \r\n\t\t\t\tinfo1.optimalInput, info1.optimalOutput, info2.optimalOutput, info3.optimalOutput, \r\n\t\t\t\t0\r\n\t\t\t);\r\n\t\t}\r\n\r\n\t\tinfo2.optimalOutput = OptimizersTrade.getUniOutputGivenMp(info2.preMP, ABDKFloat.mul(info3.rootMP, info1.rootMP), info2.reserveOut);\r\n\t\tif(info2.optimalOutput > 0){\r\n\t\t\tinfo2.optimalInput = IUniswapV2Router02(params.exchange2).getAmountIn(info2.optimalOutput, info2.reserveIn, info2.reserveOut) ;\r\n\t\t} else {\r\n\t\t\treturn TriOpportunity(\r\n\t\t\t\tinfo1.tokenIn, info1.tokenOut, info2.tokenOut,\r\n\t\t\t\tinfo1.poolAddress, info2.poolAddress, info3.poolAddress, \r\n\t\t\t\tinfo1.optimalInput, info1.optimalOutput, info2.optimalOutput, info3.optimalOutput, \r\n\t\t\t\t0\r\n\t\t\t);\r\n\t\t}\r\n\r\n\t\tinfo3.optimalOutput = OptimizersTrade.getUniOutputGivenMp(info3.preMP, ABDKFloat.mul(info1.rootMP, info2.rootMP), info3.reserveOut);\r\n\t\tif(info3.optimalOutput > 0){\r\n\t\t\tinfo3.optimalInput = IUniswapV2Router02(params.exchange3).getAmountIn(info3.optimalOutput, info3.reserveIn, info3.reserveOut) ;\r\n\t\t} else {\r\n\t\t\treturn TriOpportunity(\r\n\t\t\t\tinfo1.tokenIn, info1.tokenOut, info2.tokenOut,\r\n\t\t\t\tinfo1.poolAddress, info2.poolAddress, info3.poolAddress, \r\n\t\t\t\tinfo1.optimalInput, info1.optimalOutput, info2.optimalOutput, info3.optimalOutput, \r\n\t\t\t\t0\r\n\t\t\t);\r\n\t\t}\r\n\r\n\t\tif (info1.optimalOutput <= info2.optimalInput) {\r\n\t\t\tinfo2.optimalOutput = IUniswapV2Router02(params.exchange2).getAmountOut(info1.optimalOutput, info2.reserveIn, info2.reserveOut);\r\n\t\t\tif (info2.optimalOutput <= info3.optimalInput) {\r\n\t\t\t\tinfo3.optimalOutput = IUniswapV2Router02(params.exchange3).getAmountOut(info2.optimalOutput, info3.reserveIn, info3.reserveOut);\r\n\t\t\t} else {\r\n\t\t\t\t// info3 minimal\r\n\t\t\t\tinfo2.optimalOutput = info3.optimalInput;\r\n\t\t\t\tinfo1.optimalOutput = IUniswapV2Router02(params.exchange2).getAmountIn(info2.optimalOutput, info2.reserveIn, info2.reserveOut);  \r\n\t\t\t\tinfo1.optimalInput = IUniswapV2Router02(params.exchange1).getAmountIn(info1.optimalOutput, info1.reserveIn, info1.reserveOut);  \r\n\t\t\t}\r\n\t\t} else {\r\n\t\t\tif (info2.optimalOutput <= info3.optimalInput) {\r\n\t\t\t\tinfo3.optimalOutput = IUniswapV2Router02(params.exchange3).getAmountIn(info2.optimalOutput, info3.reserveIn, info3.reserveOut); \r\n\t\t\t\tinfo1.optimalInput = IUniswapV2Router02(params.exchange1).getAmountIn(info2.optimalOutput, info1.reserveIn, info1.reserveOut);  \r\n\t\t\t\tinfo1.optimalOutput = info2.optimalInput;\r\n\t\t\t} else {\r\n\t\t\t\tinfo2.optimalOutput = info3.optimalInput;\r\n\t\t\t\tinfo1.optimalOutput = IUniswapV2Router02(params.exchange2).getAmountIn(info2.optimalOutput, info2.reserveIn, info2.reserveOut);  \r\n\t\t\t\tinfo1.optimalInput = IUniswapV2Router02(params.exchange1).getAmountIn(info1.optimalOutput, info1.reserveIn, info1.reserveOut);\r\n\t\t\t}\t\t\r\n\t\t}\r\n\r\n\t\treturn TriOpportunity(\r\n\t\t\tinfo1.tokenIn, info1.tokenOut, info2.tokenOut,\r\n\t\t\tinfo1.poolAddress, info2.poolAddress, info3.poolAddress, \r\n\t\t\tinfo1.optimalInput, info1.optimalOutput, info2.optimalOutput, info3.optimalOutput, \r\n\t\t\tinfo3.optimalOutput > info1.optimalInput ? info3.optimalOutput - info1.optimalInput : 0\r\n\t\t);\r\n\t}\r\n\r\n\tfunction getAlmostAllOptimalInfo(OptimalInfo memory info, uint256 mpMultiplier) internal view returns (OptimalInfo memory optimalInfo) {\r\n\t\t//Get pool address, if it doesnt exist, return empty info which causes exit \r\n\t\tinfo.poolAddress = IUniswapV2Factory(info.factory).getPair(info.tokenIn, info.tokenOut);\r\n\t\tif(info.poolAddress == address(0)){\r\n\t\t\treturn info;\r\n\t\t}\r\n\r\n\t\t{\r\n\t\t\t//Get reserves for tokenIn and tokenOut and orders them correctly.\r\n\t\t\t(address tokenA, ) = sortTokens(info.tokenIn, info.tokenOut);\r\n\t\t\t(uint112 reserveA, uint112 reserveB, )  = IUniswapV2Pair(info.poolAddress).getReserves();\r\n\t\t\t(info.reserveIn, info.reserveOut) = info.tokenIn == tokenA ? (reserveA, reserveB) : (reserveB, reserveA); //Get reserve order\r\n\t\t\tdelete tokenA;\r\n\t\t\tdelete reserveA;\r\n\t\t\tdelete reserveB;\r\n\t\t}\r\n\r\n\t\tinfo.preMP = OptimizersTrade.getUniOptimalPreMP(info, ABDKFloat.div(ABDKFloat.fromUInt(mpMultiplier), MP_MULT_DIVISOR));\r\n\t\tinfo.rootMP = ABDKFloat.sqrt(ABDKFloat.div(ABDKFloat.fromUInt(info.reserveOut), ABDKFloat.fromUInt(info.reserveIn)));\r\n\t\treturn info;\r\n\t}\r\n\r\n\tfunction sortTokens(address tokenIn, address tokenOut)\r\n        internal\r\n        pure\r\n        returns (address tokenA, address tokenB)\r\n    {\r\n        require(tokenIn != tokenOut, \"UniswapV2Library: IDENTICAL_ADDRESSES\");\r\n        (tokenA, tokenB) = tokenIn < tokenOut\r\n            ? (tokenIn, tokenOut)\r\n            : (tokenOut, tokenIn);\r\n        require(tokenA != address(0), \"UniswapV2Library: ZERO_ADDRESS\");\r\n    }\r\n\t\r\n\tfallback() external payable {}\r\n\r\n    receive() external payable {}\r\n}\r\n",
	"sourcePath": "C:\\Users\\pbdon\\Desktop\\Flashloans\\branches\\EthDev\\contracts\\DEX-Arbitrage\\contracts\\Opportunity\\OptimizerTrade.sol",
	"compiler": {
		"name": "solc",
		"version": "0.7.4+commit.3f05b770.Emscripten.clang"
	},
	"schemaVersion": "3.3.2",
	"updatedAt": "2021-05-18T20:31:31.465Z",
	"networkType": "ethereum",
	"devdoc": {
		"kind": "dev",
		"methods": {},
		"version": 1
	},
	"userdoc": {
		"kind": "user",
		"methods": {},
		"version": 1
	}
}