{
	"contractName": "OptimizerTrade",
	"abi": [
		{
			"inputs": [
				{
					"internalType": "address",
					"name": "uniswapFactory",
					"type": "address"
				},
				{
					"internalType": "address payable",
					"name": "exec",
					"type": "address"
				}
			],
			"stateMutability": "payable",
			"type": "constructor",
			"payable": true
		},
		{
			"anonymous": false,
			"inputs": [
				{
					"indexed": false,
					"internalType": "string",
					"name": "reason",
					"type": "string"
				}
			],
			"name": "ErrorHandled",
			"type": "event"
		},
		{
			"stateMutability": "payable",
			"type": "fallback",
			"payable": true
		},
		{
			"inputs": [],
			"name": "chi",
			"outputs": [
				{
					"internalType": "contract ChiToken",
					"name": "",
					"type": "address"
				}
			],
			"stateMutability": "view",
			"type": "function",
			"constant": true
		},
		{
			"inputs": [],
			"name": "owner",
			"outputs": [
				{
					"internalType": "address payable",
					"name": "",
					"type": "address"
				}
			],
			"stateMutability": "view",
			"type": "function",
			"constant": true
		},
		{
			"stateMutability": "payable",
			"type": "receive",
			"payable": true
		},
		{
			"inputs": [],
			"name": "withdrawEth",
			"outputs": [],
			"stateMutability": "nonpayable",
			"type": "function"
		},
		{
			"inputs": [
				{
					"internalType": "address",
					"name": "token",
					"type": "address"
				}
			],
			"name": "withdrawErc20",
			"outputs": [],
			"stateMutability": "nonpayable",
			"type": "function"
		},
		{
			"inputs": [
				{
					"internalType": "address payable",
					"name": "newOwner",
					"type": "address"
				}
			],
			"name": "changeOwner",
			"outputs": [],
			"stateMutability": "nonpayable",
			"type": "function"
		},
		{
			"inputs": [
				{
					"internalType": "address",
					"name": "newAddress",
					"type": "address"
				}
			],
			"name": "changeUniswapFactory",
			"outputs": [],
			"stateMutability": "nonpayable",
			"type": "function"
		},
		{
			"inputs": [
				{
					"internalType": "uint256",
					"name": "divisor",
					"type": "uint256"
				}
			],
			"name": "changeInputStepDivisor",
			"outputs": [],
			"stateMutability": "nonpayable",
			"type": "function"
		},
		{
			"inputs": [
				{
					"internalType": "bytes[]",
					"name": "calls",
					"type": "bytes[]"
				}
			],
			"name": "simpleMulticallChi",
			"outputs": [],
			"stateMutability": "nonpayable",
			"type": "function"
		},
		{
			"inputs": [
				{
					"internalType": "bytes[]",
					"name": "calls",
					"type": "bytes[]"
				}
			],
			"name": "triMulticallChi",
			"outputs": [],
			"stateMutability": "nonpayable",
			"type": "function"
		},
		{
			"inputs": [
				{
					"internalType": "bytes[]",
					"name": "calls",
					"type": "bytes[]"
				}
			],
			"name": "simpleMulticall",
			"outputs": [],
			"stateMutability": "nonpayable",
			"type": "function"
		},
		{
			"inputs": [
				{
					"internalType": "bytes[]",
					"name": "calls",
					"type": "bytes[]"
				}
			],
			"name": "triMulticall",
			"outputs": [],
			"stateMutability": "nonpayable",
			"type": "function"
		}
	],
	"bytecode": "0x60806040526040516200464b3803806200464b83398101604081905262000026916200097b565b600280546001600160a01b038084166001600160a01b031992831617909255600080549285169282169290921782556001805490911633179055620000a7906200007f906200075762000157602090811b91909117901c565b6200009660016200015760201b620007571760201c565b620001c460201b620007c41760201c565b600380546001600160801b03191660809290921c919091178155633b9aca0060045560059081556200011390620000ea9062000157602090811b6200075717901c565b620001026127106200015760201b620007571760201c565b620001e160201b620007df1760201c565b6006805460809290921c6001600160801b03199092169190911790555050600780546001600160a01b0319166d4946c0e9f43f4dee607b0ef1fa1c179055620009d2565b6000816200016857506000620001bf565b8160006200017682620004bd565b9050607081101562000191578060700382901b9150620001a5565b6070811115620001a5576070810382901c91505b613fff0160701b6001600160701b03919091161760801b90505b919050565b6000620001d883600160ff1b841862000569565b90505b92915050565b6000617fff60f084811c8216919084901c8116908214156200022b5780617fff141562000219575061ffff60ef1b9150620001db9050565b505050600160ff1b81168218620001db565b80617fff14156200026c57600160801b600160f01b038416156200025a575061ffff60ef1b9150620001db9050565b505050808218600160ff1b16620001db565b600160801b600160ff1b038416620002ba57600160801b600160ff1b038516620002a1575061ffff60ef1b9150620001db9050565b505050808218600160ff1b16617fff60f01b17620001db565b6001600160701b03608085901c1681620002d85760019150620002df565b600160701b175b6001600160701b03608087901c1683620003235780156200031d5760006200030782620004bd565b6001955060e20393840160711901939190911b90505b6200032d565b600160701b1760721b5b8181816200033757fe5b049050806200036857600160ff1b87871816620003565760006200035c565b600160ff1b5b945050505050620001db565b6d10000000000000000000000000008110156200038157fe5b6000600160731b821015620003c757600160721b821015620003bb57600160711b821015620003b2576070620003b5565b60715b620003be565b60725b60ff16620003d2565b620003d282620004bd565b905083614071018186011115620003f257617fff9450600091506200048d565b83818601613ffc0110156200040f5760009450600091506200048d565b83818601613f8c01101562000461578385613ffc0111156200043d578385613ffc010382901b915062000457565b8385613ffc0110156200045757613ffc8585030382901c91505b600094506200048d565b607081111562000475576070810382901c91505b6001600160701b038216915083818601613f8d010394505b81607086901b888a186001607f1b60801b1660801c6001600160801b0316171760801b95505050505050620001db565b6000808211620004cc57600080fd5b6000600160801b8310620004e257608092831c92015b680100000000000000008310620004fb57604092831c92015b64010000000083106200051057602092831c92015b6201000083106200052357601092831c92015b61010083106200053557600892831c92015b601083106200054657600492831c92015b600483106200055757600292831c92015b60028310620001db5760010192915050565b6000617fff60f084811c8216919084901c811690821415620005cd5780617fff1415620005c2576001600160801b03198581169085161415620005b1578492505050620001db565b5061ffff60ef1b9150620001db9050565b8492505050620001db565b80617fff1415620005e3578392505050620001db565b6001607f1b608086901c90811015906001600160701b0316836200060b576001935062000612565b600160701b175b6001607f1b608087901c90811015906001600160701b0316846200063a576001945062000641565b600160701b175b8262000675576001600160801b03198816600160ff1b1462000664578762000667565b60005b9650505050505050620001db565b8062000698576001600160801b03198916600160ff1b1462000664578862000667565b8486038415158315151415620007b5576070811315620006c25789975050505050505050620001db565b6000811315620006d65790811c9062000708565b606f19811215620006f15788975050505050505050620001db565b600081121562000708578060000384901c93508596505b92810192600160711b841062000724576001968701969390931c925b86617fff14156200075a57846200074157617fff60f01b6200074b565b6001600160f01b03195b975050505050505050620001db565b600160701b8410156200077157600096506200077e565b6001600160701b03841693505b83607088901b866200079257600062000798565b6001607f1b5b6001600160801b0316171760801b975050505050505050620001db565b6000811315620007d257600184901b9350600187039650620007ea565b6000811215620007ea57600182901b91506001860396505b6070811315620007fe576001915062000850565b60018113156200081d576001810360018303901c600101915062000850565b606f1981121562000832576001935062000850565b60001981121562000850576001816000030360018503901c60010193505b818410620008635781840393506200086c565b83820393508294505b8362000884575060009650620001db95505050505050565b60006200089185620004bd565b90508060711415620008b957600185901c6001600160701b031694506001880197506200090c565b6070811015620008ff57607081900380891115620008eb578086901b6001600160701b031695508089039850620008f8565b600098600019019590951b945b506200090c565b6001600160701b03851694505b87617fff14156200094357856200092957617fff60f01b62000933565b6001600160f01b03195b98505050505050505050620001db565b84607089901b87620009575760006200095d565b6001607f1b5b6001600160801b0316171760801b98505050505050505050620001db565b600080604083850312156200098e578182fd5b82516200099b81620009b9565b6020840151909250620009ae81620009b9565b809150509250929050565b6001600160a01b0381168114620009cf57600080fd5b50565b613c6980620009e26000396000f3fe6080604052600436106100c05760003560e01c8063a0ef91df11610074578063c92aecc41161004e578063c92aecc4146101c9578063e48ad60d146101de578063ee6b9d92146101fe576100c7565b8063a0ef91df14610174578063a6f9dae114610189578063c7e42b1b146101a9576100c7565b8063548530ba116100a5578063548530ba1461010957806380caa605146101295780638da5cb5b14610149576100c7565b806306de590d146100c95780634da458a0146100e9576100c7565b366100c757005b005b3480156100d557600080fd5b506100c76100e4366004613803565b61021e565b3480156100f557600080fd5b506100c76101043660046135f7565b610270565b34801561011557600080fd5b506100c76101243660046135f7565b6103a7565b34801561013557600080fd5b506100c76101443660046135f7565b61041a565b34801561015557600080fd5b5061015e610441565b60405161016b919061389c565b60405180910390f35b34801561018057600080fd5b506100c7610450565b34801561019557600080fd5b506100c76101a43660046135bf565b6104d0565b3480156101b557600080fd5b506100c76101c43660046135bf565b61054e565b3480156101d557600080fd5b5061015e6106a8565b3480156101ea57600080fd5b506100c76101f93660046135bf565b6106b7565b34801561020a57600080fd5b506100c76102193660046135f7565b610735565b6001546001600160a01b0316331461026b576040517f08c379a000000000000000000000000000000000000000000000000000000000815260040161026290613a7d565b60405180910390fd5b600455565b60005a905060005b828110156102e3576102db84848381811061028f57fe5b90506020028101906102a19190613ad3565b8080601f016020809104026020016040519081016040528093929190818152602001838380828437600092019190915250610bba92505050565b600101610278565b50615208601036020160005a828401039050600061a3db61374a83016007546040517f6366b9360000000000000000000000000000000000000000000000000000000081529290910492506001600160a01b031690636366b9369061034c908490600401613ab4565b602060405180830381600087803b15801561036657600080fd5b505af115801561037a573d6000803e3d6000fd5b505050506040513d601f19601f8201168201806040525081019061039e919061381b565b50505050505050565b60005a905060005b828110156102e3576104128484838181106103c657fe5b90506020028101906103d89190613ad3565b8080601f016020809104026020016040519081016040528093929190818152602001838380828437600092019190915250610d4c92505050565b6001016103af565b60005b8181101561043c576104348383838181106103c657fe5b60010161041d565b505050565b6001546001600160a01b031681565b6001546001600160a01b03163314610494576040517f08c379a000000000000000000000000000000000000000000000000000000000815260040161026290613a7d565b6001546040516001600160a01b03909116904780156108fc02916000818181858888f193505050501580156104cd573d6000803e3d6000fd5b50565b6001546001600160a01b03163314610514576040517f08c379a000000000000000000000000000000000000000000000000000000000815260040161026290613a7d565b600180547fffffffffffffffffffffffff0000000000000000000000000000000000000000166001600160a01b0392909216919091179055565b6001546001600160a01b03163314610592576040517f08c379a000000000000000000000000000000000000000000000000000000000815260040161026290613a7d565b6001546040517f70a0823100000000000000000000000000000000000000000000000000000000815282916001600160a01b038084169263a9059cbb929091169083906370a08231906105e990309060040161389c565b60206040518083038186803b15801561060157600080fd5b505afa158015610615573d6000803e3d6000fd5b505050506040513d601f19601f82011682018060405250810190610639919061381b565b6040518363ffffffff1660e01b81526004016106569291906138b0565b602060405180830381600087803b15801561067057600080fd5b505af1158015610684573d6000803e3d6000fd5b505050506040513d601f19601f8201168201806040525081019061043c9190613666565b6007546001600160a01b031681565b6001546001600160a01b031633146106fb576040517f08c379a000000000000000000000000000000000000000000000000000000000815260040161026290613a7d565b600080547fffffffffffffffffffffffff0000000000000000000000000000000000000000166001600160a01b0392909216919091179055565b60005b8181101561043c5761074f83838381811061028f57fe5b600101610738565b600081610766575060006107bf565b81600061077282610ed2565b9050607081101561078b578060700382901b915061079e565b607081111561079e576070810382901c91505b613fff0160701b6dffffffffffffffffffffffffffff919091161760801b90505b919050565b60006107d683600160ff1b8418610f82565b90505b92915050565b6000617fff60f084811c8216919084901c8116908214156108405780617fff141561082f57507f7fff80000000000000000000000000000000000000000000000000000000000091506107d99050565b505050600160ff1b811682186107d9565b80617fff14156108ac577dffffffffffffffffffffffffffff0000000000000000000000000000000084161561089b57507f7fff80000000000000000000000000000000000000000000000000000000000091506107d99050565b505050808218600160ff1b166107d9565b7f7fffffffffffffffffffffffffffffff000000000000000000000000000000008416610958577f7fffffffffffffffffffffffffffffff00000000000000000000000000000000851661092557507f7fff80000000000000000000000000000000000000000000000000000000000091506107d99050565b505050808218600160ff1b167f7fff000000000000000000000000000000000000000000000000000000000000176107d9565b6dffffffffffffffffffffffffffff608085901c168161097b576001915061098d565b6e010000000000000000000000000000175b6dffffffffffffffffffffffffffff608087901c16836109f15780156109ec5760006109b882610ed2565b6001955060e2039384017fffffffffffffffffffffffffffffffffffffffffffffffffffffffffffffff8e01939190911b90505b610a06565b6e0100000000000000000000000000001760721b5b818181610a0f57fe5b04905080610a3c57600160ff1b87871816610a2b576000610a31565b600160ff1b5b9450505050506107d9565b6d1000000000000000000000000000811015610a5457fe5b60006e080000000000000000000000000000821015610ab5576e040000000000000000000000000000821015610aaa576e020000000000000000000000000000821015610aa2576070610aa5565b60715b610aad565b60725b60ff16610abe565b610abe82610ed2565b905083614071018186011115610adc57617fff945060009150610b76565b83818601613ffc011015610af7576000945060009150610b76565b83818601613f8c011015610b44578385613ffc011115610b22578385613ffc010382901b9150610b3b565b8385613ffc011015610b3b57613ffc8585030382901c91505b60009450610b76565b6070811115610b57576070810382901c91505b6dffffffffffffffffffffffffffff8216915083818601613f8d010394505b81607086901b888a186f8000000000000000000000000000000060801b1660801c6fffffffffffffffffffffffffffffffff16171760801b955050505050506107d9565b610bc261344f565b81806020019051810190610bd69190613710565b9050610be061348b565b610be98261152b565b90508060c001518161012001511115610d345760025481516020808401516040808601516060870151608088015160a089015160c08a015160e08b01516101008c01516101208d015197516001600160a01b03909c169b638788d0829b610c549b909a999101613942565b6040516020818303038152906040526040518263ffffffff1660e01b8152600401610c7f919061399f565b600060405180830381600087803b158015610c9957600080fd5b505af1925050508015610caa575060015b610d3457610cb6613b3c565b80610cc15750610cfe565b7f4f17d5cf0427b4fe5e5649c407d3021315cfaa7216c9e58c369ef3937c40801a81604051610cf0919061399f565b60405180910390a150610d34565b7f4f17d5cf0427b4fe5e5649c407d3021315cfaa7216c9e58c369ef3937c40801a604051610d2b906139b2565b60405180910390a15b610d3c61348b565b9050610d4661344f565b50505050565b610d546134df565b81806020019051810190610d689190613686565b9050610d7261344f565b610d7b82611c3b565b905080608001518160c001511115610ec05760025481516020808401516040808601516060870151608088015160a089015160c08a015194516001600160a01b0390991698638788d08298610de09890979687969594859490939092600091016138e3565b6040516020818303038152906040526040518263ffffffff1660e01b8152600401610e0b919061399f565b600060405180830381600087803b158015610e2557600080fd5b505af1925050508015610e36575060015b610ec057610e42613b3c565b80610e4d5750610e8a565b7f4f17d5cf0427b4fe5e5649c407d3021315cfaa7216c9e58c369ef3937c40801a81604051610e7c919061399f565b60405180910390a150610ec0565b7f4f17d5cf0427b4fe5e5649c407d3021315cfaa7216c9e58c369ef3937c40801a604051610eb7906139b2565b60405180910390a15b610ec861344f565b9050610d466134df565b6000808211610ee057600080fd5b60007001000000000000000000000000000000008310610f0257608092831c92015b680100000000000000008310610f1a57604092831c92015b6401000000008310610f2e57602092831c92015b620100008310610f4057601092831c92015b6101008310610f5157600892831c92015b60108310610f6157600492831c92015b60048310610f7157600292831c92015b600283106107d95760010192915050565b6000617fff60f084811c8216919084901c8116908214156110135780617fff1415611009577fffffffffffffffffffffffffffffffff000000000000000000000000000000008581169085161415610fde5784925050506107d9565b507f7fff80000000000000000000000000000000000000000000000000000000000091506107d99050565b84925050506107d9565b80617fff14156110275783925050506107d9565b6f80000000000000000000000000000000608086901c90811015906dffffffffffffffffffffffffffff16836110605760019350611072565b6e010000000000000000000000000000175b6f80000000000000000000000000000000608087901c90811015906dffffffffffffffffffffffffffff16846110ab57600194506110bd565b6e010000000000000000000000000000175b82611105577fffffffffffffffffffffffffffffffff000000000000000000000000000000008816600160ff1b146110f557876110f8565b60005b96505050505050506107d9565b8061113d577fffffffffffffffffffffffffffffffff000000000000000000000000000000008916600160ff1b146110f557886110f8565b84860384151583151514156112cb57607081131561116457899750505050505050506107d9565b60008113156111765790811c906111c3565b7fffffffffffffffffffffffffffffffffffffffffffffffffffffffffffffff908112156111ad57889750505050505050506107d9565b60008112156111c3578060000384901c93508596505b928101926e02000000000000000000000000000084106111e9576001968701969390931c925b86617fff141561124e578461121e577f7fff000000000000000000000000000000000000000000000000000000000000611240565b7fffff0000000000000000000000000000000000000000000000000000000000005b9750505050505050506107d9565b6e01000000000000000000000000000084101561126e5760009650611282565b6dffffffffffffffffffffffffffff841693505b83607088901b866112945760006112a6565b6f800000000000000000000000000000005b6fffffffffffffffffffffffffffffffff16171760801b9750505050505050506107d9565b60008113156112e657600184901b93506001870396506112fd565b60008112156112fd57600182901b91506001860396505b607081131561130f5760019150611398565b600181131561132c576001810360018303901c6001019150611398565b7fffffffffffffffffffffffffffffffffffffffffffffffffffffffffffffff9081121561135d5760019350611398565b7fffffffffffffffffffffffffffffffffffffffffffffffffffffffffffffffff811215611398576001816000030360018503901c60010193505b8184106113a95781840393506113b2565b83820393508294505b836113c85750600096506107d995505050505050565b60006113d385610ed2565b9050806071141561140057600185901c6dffffffffffffffffffffffffffff16945060018801975061147b565b607081101561146757607081900380891115611436578086901b6dffffffffffffffffffffffffffff1695508089039850611461565b6000987fffffffffffffffffffffffffffffffffffffffffffffffffffffffffffffffff019590951b945b5061147b565b6dffffffffffffffffffffffffffff851694505b87617fff14156114e157856114b0577f7fff0000000000000000000000000000000000000000000000000000000000006114d2565b7fffff0000000000000000000000000000000000000000000000000000000000005b985050505050505050506107d9565b84607089901b876114f3576000611505565b6f800000000000000000000000000000005b6fffffffffffffffffffffffffffffffff16171760801b985050505050505050506107d9565b61153361348b565b61153b61350d565b60405180610100016040528084600001516001600160a01b0316815260200184602001516001600160a01b031681526020016000815260200160008152602001600081526020016000815260200160006001600160a01b0316815260200184606001516001600160a01b031663c45a01556040518163ffffffff1660e01b815260040160206040518083038186803b1580156115d657600080fd5b505afa1580156115ea573d6000803e3d6000fd5b505050506040513d601f19601f8201168201806040525081019061160e91906135db565b6001600160a01b03169052905061162361350d565b60405180610100016040528085602001516001600160a01b0316815260200185604001516001600160a01b031681526020016000815260200160008152602001600081526020016000815260200160006001600160a01b0316815260200185608001516001600160a01b031663c45a01556040518163ffffffff1660e01b815260040160206040518083038186803b1580156116be57600080fd5b505afa1580156116d2573d6000803e3d6000fd5b505050506040513d601f19601f820116820180604052508101906116f691906135db565b6001600160a01b03169052905061170b61350d565b60405180610100016040528086604001516001600160a01b0316815260200186600001516001600160a01b031681526020016000815260200160008152602001600081526020016000815260200160006001600160a01b031681526020018660a001516001600160a01b031663c45a01556040518163ffffffff1660e01b815260040160206040518083038186803b1580156117a657600080fd5b505afa1580156117ba573d6000803e3d6000fd5b505050506040513d601f19601f820116820180604052508101906117de91906135db565b6001600160a01b0316905290506117f48361207e565b6080810151909350158061180a575060a0830151155b156118ba5760405180610140016040528084600001516001600160a01b0316815260200184602001516001600160a01b0316815260200183602001516001600160a01b031681526020018460c001516001600160a01b031681526020018360c001516001600160a01b031681526020018260c001516001600160a01b03168152602001846040015181526020018460600151815260200183606001518152602001600081525093505050506107bf565b6118c38261207e565b608081015190925015806118d9575060a0820151155b156119895760405180610140016040528084600001516001600160a01b0316815260200184602001516001600160a01b0316815260200183602001516001600160a01b031681526020018460c001516001600160a01b031681526020018360c001516001600160a01b031681526020018260c001516001600160a01b03168152602001846040015181526020018460600151815260200183606001518152602001600081525093505050506107bf565b6119928161207e565b608081015190915015806119a8575060a0810151155b15611a585760405180610140016040528084600001516001600160a01b0316815260200184602001516001600160a01b0316815260200183602001516001600160a01b031681526020018460c001516001600160a01b031681526020018360c001516001600160a01b031681526020018260c001516001600160a01b03168152602001846040015181526020018460600151815260200183606001518152602001600081525093505050506107bf565b6000611a8084608001518560a0015185608001518660a0015186608001518760a00151612224565b9050611aab81611aa6611a968960c00151610757565b611aa1612710610757565b6107df565b6122a3565b60000b600114611b615760405180610140016040528085600001516001600160a01b0316815260200185602001516001600160a01b0316815260200184602001516001600160a01b031681526020018560c001516001600160a01b031681526020018460c001516001600160a01b031681526020018360c001516001600160a01b0316815260200185604001518152602001856060015181526020018460600151815260200160008152509450505050506107bf565b611ba36040518060a00160405280888152602001836fffffffffffffffffffffffffffffffff19168152602001868152602001858152602001848152506124a1565b60608681019182528781019283528881019384526040808a019586528051610140810182528a516001600160a01b0390811682526020808d01518216838201528b015181169282019290925260c09a8b015182169281019290925297890151881660808201529588015190961660a0860152915195840195909552935160e08301525091516101008301525161012082015292915050565b611c4361344f565b611c4b61350d565b60405180610100016040528084600001516001600160a01b0316815260200184602001516001600160a01b031681526020016000815260200160008152602001600081526020016000815260200160006001600160a01b0316815260200184604001516001600160a01b031663c45a01556040518163ffffffff1660e01b815260040160206040518083038186803b158015611ce657600080fd5b505afa158015611cfa573d6000803e3d6000fd5b505050506040513d601f19601f82011682018060405250810190611d1e91906135db565b6001600160a01b031690529050611d3361350d565b60405180610100016040528085602001516001600160a01b0316815260200185600001516001600160a01b031681526020016000815260200160008152602001600081526020016000815260200160006001600160a01b0316815260200185606001516001600160a01b031663c45a01556040518163ffffffff1660e01b815260040160206040518083038186803b158015611dce57600080fd5b505afa158015611de2573d6000803e3d6000fd5b505050506040513d601f19601f82011682018060405250810190611e0691906135db565b6001600160a01b031690529050611e1c8261207e565b60808101519092501580611e32575060a0820151155b15611eb0576040518060e0016040528083600001516001600160a01b0316815260200183602001516001600160a01b031681526020018360c001516001600160a01b031681526020018260c001516001600160a01b0316815260200183604001518152602001836060015181526020016000815250925050506107bf565b611eb98161207e565b60808101519091501580611ecf575060a0810151155b15611f4d576040518060e0016040528083600001516001600160a01b0316815260200183602001516001600160a01b031681526020018360c001516001600160a01b031681526020018260c001516001600160a01b0316815260200183604001518152602001836060015181526020016000815250925050506107bf565b6000611f6b83608001518460a001518460a001518560800151612b47565b9050611f8181611aa6611a968860800151610757565b60000b600114612005576040518060e0016040528084600001516001600160a01b0316815260200184602001516001600160a01b031681526020018460c001516001600160a01b031681526020018360c001516001600160a01b031681526020018460400151815260200184606001518152602001600081525093505050506107bf565b61201183838784612b92565b60608581019182528681019283526040808801948552805160e08101825288516001600160a01b0390811682526020808b015182169083015260c0998a0151811692820192909252968801511690860152915160808501525160a084015251928201929092529392505050565b61208661350d565b60e0820151825160208401516040517fe6a439050000000000000000000000000000000000000000000000000000000081526001600160a01b039093169263e6a43905926120d89290916004016138c9565b60206040518083038186803b1580156120f057600080fd5b505afa158015612104573d6000803e3d6000fd5b505050506040513d601f19601f8201168201806040525081019061212891906135db565b6001600160a01b031660c083018190526121435750806107bf565b600061215783600001518460200151612f5c565b5090506000808460c001516001600160a01b0316630902f1ac6040518163ffffffff1660e01b815260040160606040518083038186803b15801561219a57600080fd5b505afa1580156121ae573d6000803e3d6000fd5b505050506040513d601f19601f820116820180604052508101906121d291906137b5565b5091509150826001600160a01b031685600001516001600160a01b0316146121fb5780826121fe565b81815b6dffffffffffffffffffffffffffff90811660a088015216608086015250929392505050565b60008061223c61223388610757565b611aa18a610757565b9050600061225561224c87610757565b611aa189610757565b9050600061226e61226586610757565b611aa188610757565b9050612295612286612280858561301a565b8361301a565b6122906001610757565b6107c4565b9a9950505050505050505050565b60006f7fffffffffffffffffffffffffffffff608084901c166f7fff00000000000000000000000000008111156122d957600080fd5b6f7fffffffffffffffffffffffffffffff608084901c166f7fff000000000000000000000000000081111561230d57600080fd5b7fffffffffffffffffffffffffffffffff0000000000000000000000000000000085811690851614158061236257506f7fff0000000000000000000000000000826fffffffffffffffffffffffffffffffff16105b61236b57600080fd5b7fffffffffffffffffffffffffffffffff0000000000000000000000000000000085811690851614156123a3576000925050506107d9565b6f80000000000000000000000000000000608086811c82118015929187901c91909110159061243057801561240457826fffffffffffffffffffffffffffffffff16846fffffffffffffffffffffffffffffffff1611612404576001610a31565b7fffffffffffffffffffffffffffffffffffffffffffffffffffffffffffffffff9450505050506107d9565b80156124435760019450505050506107d9565b826fffffffffffffffffffffffffffffffff16846fffffffffffffffffffffffffffffffff1611612494577fffffffffffffffffffffffffffffffffffffffffffffffffffffffffffffffff610a31565b60019450505050506107d9565b600080600080600454856040015160800151116124c0576103e86124d5565b600454856040015160800151816124d357fe5b045b855160600151604080880151608081015160a09091015191517f054d50d40000000000000000000000000000000000000000000000000000000081529397506001600160a01b039092169263054d50d492612534928992600401613abd565b60206040518083038186803b15801561254c57600080fd5b505afa158015612560573d6000803e3d6000fd5b505050506040513d601f19601f82011682018060405250810190612584919061381b565b925060008311612595576000612643565b845160809081015160608701519182015160a0909201516040517f054d50d40000000000000000000000000000000000000000000000000000000081526001600160a01b039092169263054d50d4926125f392889291600401613abd565b60206040518083038186803b15801561260b57600080fd5b505afa15801561261f573d6000803e3d6000fd5b505050506040513d601f19601f82011682018060405250810190612643919061381b565b915060008211612654576000612700565b845160a090810151608080880151908101519201516040517f054d50d40000000000000000000000000000000000000000000000000000000081526001600160a01b039092169263054d50d4926126b092879291600401613abd565b60206040518083038186803b1580156126c857600080fd5b505afa1580156126dc573d6000803e3d6000fd5b505050506040513d601f19601f82011682018060405250810190612700919061381b565b90508061271857506000925082915081905080612b40565b612720613576565b604051806060016040528060008152602001612746611a96896000015160c00151610757565b6fffffffffffffffffffffffffffffffff191681526020016127a88789604001516080015101878a6040015160a0015103888b606001516080015101888c6060015160a0015103898d608001516080015101898e6080015160a0015103612224565b7fffffffffffffffffffffffffffffffff000000000000000000000000000000001690526000815290505b60055481511015612b355761281e6128196127f6886020015184602001516107c4565b61281461280289610757565b611aa18b6020015187604001516107c4565b61301a565b61336a565b94506000851161282f5760006128de565b855160600151604080880151608081015160a09091015191517f054d50d40000000000000000000000000000000000000000000000000000000081526001600160a01b039093169263054d50d49261288e928a92909190600401613abd565b60206040518083038186803b1580156128a657600080fd5b505afa1580156128ba573d6000803e3d6000fd5b505050506040513d601f19601f820116820180604052508101906128de919061381b565b9350600084116128ef57600061299d565b855160809081015160608801519182015160a0909201516040517f054d50d40000000000000000000000000000000000000000000000000000000081526001600160a01b039092169263054d50d49261294d92899291600401613abd565b60206040518083038186803b15801561296557600080fd5b505afa158015612979573d6000803e3d6000fd5b505050506040513d601f19601f8201168201806040525081019061299d919061381b565b9250600083116129ae576000612a5a565b855160a090810151608080890151908101519201516040517f054d50d40000000000000000000000000000000000000000000000000000000081526001600160a01b039092169263054d50d492612a0a92889291600401613abd565b60206040518083038186803b158015612a2257600080fd5b505afa158015612a36573d6000803e3d6000fd5b505050506040513d601f19601f82011682018060405250810190612a5a919061381b565b915081612a7557600080600080945094509450945050612b40565b612abf858760400151608001510185886040015160a00151038689606001516080015101868a6060015160a0015103878b608001516080015101878c6080015160a0015103612224565b7fffffffffffffffffffffffffffffffff0000000000000000000000000000000016604082018190526006546020830151612b0e9260809290921b91611aa691612b0991906107c4565b61342a565b60000b60011415612b2957612b21613576565b905050612b40565b805160010181526127d3565b612b3d613576565b50505b9193509193565b600080612b5f612b5685610757565b61281487610757565b90506000612b78612b6f85610757565b61281489610757565b9050612b8761228683836107df565b979650505050505050565b600080600080612ba8611a968760800151610757565b9050600454886080015111612bbf576103e8612bd0565b600454886080015181612bce57fe5b045b935085604001516001600160a01b031663054d50d4858a608001518b60a001516040518463ffffffff1660e01b8152600401612c0e93929190613abd565b60206040518083038186803b158015612c2657600080fd5b505afa158015612c3a573d6000803e3d6000fd5b505050506040513d601f19601f82011682018060405250810190612c5e919061381b565b925060008311612c6f576000612d14565b6060860151608088015160a08901516040517f054d50d40000000000000000000000000000000000000000000000000000000081526001600160a01b039093169263054d50d492612cc4928892600401613abd565b60206040518083038186803b158015612cdc57600080fd5b505afa158015612cf0573d6000803e3d6000fd5b505050506040513d601f19601f82011682018060405250810190612d14919061381b565b915081612d2c57600080600093509350935050612f52565b6000612d52858a6080015101858b60a0015103858b60a0015103878c6080015101612b47565b905060005b600554811015612f4e57612d87612819612d7189866107c4565b612814612d7d8a610757565b611aa18c886107c4565b955060008611612d98576000612e24565b87604001516001600160a01b031663054d50d4878c608001518d60a001516040518463ffffffff1660e01b8152600401612dd493929190613abd565b60206040518083038186803b158015612dec57600080fd5b505afa158015612e00573d6000803e3d6000fd5b505050506040513d601f19601f82011682018060405250810190612e24919061381b565b945060008511612e35576000612eda565b606088015160808a015160a08b01516040517f054d50d40000000000000000000000000000000000000000000000000000000081526001600160a01b039093169263054d50d492612e8a928a92600401613abd565b60206040518083038186803b158015612ea257600080fd5b505afa158015612eb6573d6000803e3d6000fd5b505050506040513d601f19601f82011682018060405250810190612eda919061381b565b935083612ef4576000806000955095509550505050612f52565b612f18868b6080015101868c60a0015103868c60a0015103888d6080015101612b47565b600654909250612f329060801b611aa6612b0985876107c4565b60000b60011415612f465750612f52915050565b600101612d57565b5050505b9450945094915050565b600080826001600160a01b0316846001600160a01b03161415612fab576040517f08c379a0000000000000000000000000000000000000000000000000000000008152600401610262906139e9565b826001600160a01b0316846001600160a01b031610612fcb578284612fce565b83835b90925090506001600160a01b038216613013576040517f08c379a000000000000000000000000000000000000000000000000000000000815260040161026290613a46565b9250929050565b6000617fff60f084811c8216919084901c81169082141561310a5780617fff14156130b8577fffffffffffffffffffffffffffffffff00000000000000000000000000000000858116908516141561307d57505050600160ff1b811682186107d9565b600160ff1b7fffffffffffffffffffffffffffffffff00000000000000000000000000000000868618161415610fde575050508181176107d9565b7f7fffffffffffffffffffffffffffffff00000000000000000000000000000000841661082f57507f7fff80000000000000000000000000000000000000000000000000000000000091506107d99050565b80617fff1415613177577f7fffffffffffffffffffffffffffffff00000000000000000000000000000000851661316657507f7fff80000000000000000000000000000000000000000000000000000000000091506107d99050565b505050600160ff1b821681186107d9565b6dffffffffffffffffffffffffffff608086901c168261319a57600192506131ac565b6e010000000000000000000000000000175b6dffffffffffffffffffffffffffff608086901c16826131cf57600192506131e1565b6e010000000000000000000000000000175b90810290816131fe57600160ff1b87871816610a2b576000610a31565b9282019260007c0200000000000000000000000000000000000000000000000000000000831015613264577c010000000000000000000000000000000000000000000000000000000083101561325c5761325783610ed2565b61325f565b60e05b613267565b60e15b90506140708186011015613282576000945060009250613326565b6140e081860110156132c5576140708510156132a757846140700383901c92506132bc565b6140708511156132bc57614070850383901b92505b60009450613326565b61c0dd81860111156132df57617fff945060009250613326565b60708111156132f6576070810383901c9250613309565b6070811015613309578060700383901b92505b6dffffffffffffffffffffffffffff831692506140df8186010394505b82607086901b888a186f8000000000000000000000000000000060801b1660801c6fffffffffffffffffffffffffffffffff16171760801b955050505050506107d9565b6000617fff60f083901c16613fff8110156133895760009150506107bf565b6f80000000000000000000000000000000608084901c106133a957600080fd5b6140fe8111156133b857600080fd5b6e0100000000000000000000000000006dffffffffffffffffffffffffffff608085901c161761406f8210156133f45761406f8290031c613423565b61406f821115613423577fffffffffffffffffffffffffffffffffffffffffffffffffffffffffffffbf9182011b5b9392505050565b7f7fffffffffffffffffffffffffffffff000000000000000000000000000000001690565b6040805160e081018252600080825260208201819052918101829052606081018290526080810182905260a0810182905260c081019190915290565b6040805161014081018252600080825260208201819052918101829052606081018290526080810182905260a0810182905260c0810182905260e08101829052610100810182905261012081019190915290565b6040805160a08101825260008082526020820181905291810182905260608101829052608081019190915290565b60405180610100016040528060006001600160a01b0316815260200160006001600160a01b031681526020016000815260200160008152602001600081526020016000815260200160006001600160a01b0316815260200160006001600160a01b031681525090565b604080516060810182526000808252602082018190529181019190915290565b80516107bf81613c1e565b80516dffffffffffffffffffffffffffff811681146107bf57600080fd5b6000602082840312156135d0578081fd5b813561342381613c1e565b6000602082840312156135ec578081fd5b815161342381613c1e565b60008060208385031215613609578081fd5b823567ffffffffffffffff80821115613620578283fd5b818501915085601f830112613633578283fd5b813581811115613641578384fd5b8660208083028501011115613654578384fd5b60209290920196919550909350505050565b600060208284031215613677578081fd5b81518015158114613423578182fd5b600060a08284031215613697578081fd5b60405160a0810181811067ffffffffffffffff821117156136b457fe5b60405282516136c281613c1e565b815260208301516136d281613c1e565b602082015260408301516136e581613c1e565b604082015260608301516136f881613c1e565b60608201526080928301519281019290925250919050565b600060e08284031215613721578081fd5b60405160e0810181811067ffffffffffffffff8211171561373e57fe5b60405261374a83613596565b815261375860208401613596565b602082015261376960408401613596565b604082015261377a60608401613596565b606082015261378b60808401613596565b608082015261379c60a08401613596565b60a082015260c083015160c08201528091505092915050565b6000806000606084860312156137c9578081fd5b6137d2846135a1565b92506137e0602085016135a1565b9150604084015163ffffffff811681146137f8578182fd5b809150509250925092565b600060208284031215613814578081fd5b5035919050565b60006020828403121561382c578081fd5b5051919050565b60008151808452815b818110156138585760208185018101518683018201520161383c565b818111156138695782602083870101525b50601f017fffffffffffffffffffffffffffffffffffffffffffffffffffffffffffffffe0169290920160200192915050565b6001600160a01b0391909116815260200190565b6001600160a01b03929092168252602082015260400190565b6001600160a01b0392831681529116602082015260400190565b6001600160a01b039a8b168152988a1660208a0152968916604089015294881660608801529287166080870152951660a085015260c084019490945260e083019390935261010082019290925260ff9091166101208201526101400190565b6001600160a01b039a8b168152988a1660208a0152968916604089015294881660608801529287166080870152951660a085015260c084019490945260e08301939093526101008201929092526101208101919091526101400190565b6000602082526107d66020830184613833565b60208082526014908201527f4361756768742077697468206e6f206572726f72000000000000000000000000604082015260600190565b60208082526025908201527f556e697377617056324c6962726172793a204944454e544943414c5f4144445260408201527f4553534553000000000000000000000000000000000000000000000000000000606082015260800190565b6020808252601e908201527f556e697377617056324c6962726172793a205a45524f5f414444524553530000604082015260600190565b60208082526016908201527f53656e646572206e6f7420617574686f72697a65642e00000000000000000000604082015260600190565b90815260200190565b9283526020830191909152604082015260600190565b60008083357fffffffffffffffffffffffffffffffffffffffffffffffffffffffffffffffe1843603018112613b07578283fd5b83018035915067ffffffffffffffff821115613b21578283fd5b60200191503681900382131561301357600080fd5b60e01c90565b600060443d1015613b4c57613c1b565b600481823e6308c379a0613b608251613b36565b14613b6a57613c1b565b6040517ffffffffffffffffffffffffffffffffffffffffffffffffffffffffffffffffc3d016004823e80513d67ffffffffffffffff8160248401118184111715613bb85750505050613c1b565b82840192508251915080821115613bd25750505050613c1b565b503d83016020828401011115613bea57505050613c1b565b601f017fffffffffffffffffffffffffffffffffffffffffffffffffffffffffffffffe01681016020016040529150505b90565b6001600160a01b03811681146104cd57600080fdfea264697066735822122056735e7f639445096388c4bee46fb4bd70cd414fe71644691b5a3f02f5162c2d64736f6c63430007040033",
	"immutableReferences": {},
	"source": "pragma solidity >=0.6.0;\r\n// SPDX-License-Identifier: UNLICENSED\r\npragma experimental ABIEncoderV2;\r\nimport '../External/Uniswap.sol';\r\nimport \"../External/IERC20.sol\";\r\nimport \"../Execution/TriArbNoRD.sol\";\r\nimport \"../External/ChiToken.sol\";\r\n\r\ncontract OptimizerTrade {\r\n\taddress UniswapFactoryAddress; //For converting to std\r\n\taddress payable public owner;\r\n\taddress payable execContract;\r\n\tbytes16 NEG_1;\r\n\tuint256 INPUT_STEP_DIVISOR;\r\n\tuint MAX_ITERATIONS;\r\n\tbytes16 ITERATOR_THRESHOLD;\r\n\tChiToken public chi; \r\n\r\n\tstruct SimpleCall {\r\n\t\taddress outerToken;\r\n\t\taddress innerToken;\r\n\t\taddress exchange1;\r\n\t\taddress exchange2;\r\n\t\tuint256 swapFeeSum;\r\n\t}\r\n\r\n\tstruct TriCall {\r\n\t\taddress token1;\r\n\t\taddress token2;\r\n\t\taddress token3;\r\n\t\taddress exchange1;\r\n\t\taddress exchange2;\r\n\t\taddress exchange3;\r\n\t\tuint256 swapFeeSum;\r\n\t}\r\n\r\n\tstruct Opportunity {\r\n\t\taddress outerToken;\r\n\t\taddress innerToken;\r\n\t\taddress awayPool;\r\n\t\taddress returnPool;\r\n\t\tuint256 inputWei;\r\n\t\tuint256 innerWei;\r\n\t\tuint256 outputWei;\r\n\t}\r\n\r\n\tstruct TriOpportunity {\r\n\t\taddress token1;\r\n\t\taddress token2;\r\n\t\taddress token3;\r\n\t\taddress pool1;\r\n\t\taddress pool2;\r\n\t\taddress pool3;\r\n\t\tuint256 input1;\r\n\t\tuint256 output1; // == input2\r\n\t\tuint256 output2; // == input 3\r\n\t\tuint256 output3;\r\n\t}\r\n\r\n\tstruct Iter {\r\n\t\tuint iterator;\r\n\t\tbytes16 targetImbalance;\r\n\t\tbytes16 postStepImbalance;\r\n\t}\r\n\r\n\tstruct TriIteratorInputs {\r\n\t\tTriCall params;\r\n\t\tbytes16 initImbalance;\r\n\t\tOptimalInfo info1;\r\n\t\tOptimalInfo info2;\r\n\t\tOptimalInfo info3;\r\n\t}\r\n\r\n\tstruct OptimalInfo {\r\n\t\taddress tokenIn;\r\n\t\taddress tokenOut;\r\n\t\tuint256 input;\r\n\t\tuint256 output;\r\n\t\tuint256 reserveIn;\r\n\t\tuint256 reserveOut;\r\n\t\taddress poolAddress;\r\n\t\taddress factory;\r\n\t}\r\n\r\n\tevent ErrorHandled(string reason);\r\n\r\n\t//Create modifier to limit who can call the contract\r\n\tmodifier onlyOwner() {\r\n\t\trequire(msg.sender == owner, 'Sender not authorized.');\r\n\t\t// Do not forget the \"_;\"! It will\r\n\t\t// be replaced by the actual function\r\n\t\t// body when the modifier is used.\r\n\t\t_;\r\n\t}\r\n\r\n\tmodifier discountCHI {\r\n        uint256 gasStart = gasleft();\r\n\r\n        _;\r\n\r\n        uint256 initialGas = 21000 + 16 * msg.data.length;\r\n        uint256 gasSpent = initialGas + gasStart - gasleft();\r\n        uint256 freeUpValue = (gasSpent + 14154) / 41947;\r\n\r\n        chi.freeUpTo(freeUpValue);\r\n    }\r\n\r\n\tconstructor(address uniswapFactory, address payable exec) payable {\r\n\t\texecContract = exec;\r\n\t\tUniswapFactoryAddress = uniswapFactory;\r\n\t\towner = payable(msg.sender);\r\n\t\tNEG_1 = ABDKFloat.sub(ABDKFloat.fromUInt(0), ABDKFloat.fromUInt(1));\r\n\t\tINPUT_STEP_DIVISOR = 1000000000;\r\n\t\tMAX_ITERATIONS = 3;\r\n\t\tITERATOR_THRESHOLD = ABDKFloat.div(ABDKFloat.fromUInt(5), ABDKFloat.fromUInt(10000)); // .0005\r\n\t\tchi = ChiToken(0x0000000000004946c0e9F43F4Dee607b0eF1fA1c);\r\n\t}\r\n\r\n\t//Withdraws any ethereum from the address\r\n\tfunction withdrawEth() public onlyOwner {\r\n\t\t\towner.transfer(address(this).balance);\r\n\t}\r\n\r\n\t//Withdraw a specific ERC20 token\r\n\tfunction withdrawErc20(address token) external onlyOwner {\r\n\t\t\tIERC20 newToken = IERC20(token);\r\n\t\t\tnewToken.transfer(owner, newToken.balanceOf(address(this)));\r\n\t}\r\n\r\n\t//Change the contract owner\r\n\tfunction changeOwner(address payable newOwner) external onlyOwner {\r\n\t\t\towner = newOwner;\r\n\t}\r\n\r\n\t//Change the router address\r\n\tfunction changeUniswapFactory(address newAddress) external onlyOwner {\r\n\t\tUniswapFactoryAddress = newAddress;\r\n\t}\r\n\r\n\tfunction changeInputStepDivisor(uint256 divisor) external onlyOwner {\r\n\t\tINPUT_STEP_DIVISOR = divisor;\r\n\t}\r\n\r\n\tfunction simpleMulticallChi(bytes[] calldata calls) external discountCHI{\r\n\t\tfor (uint i = 0; i < calls.length; i++) {\r\n\t\t\tgetOpportunityFromCall(calls[i]);\r\n\t\t}\r\n  \t}\r\n\r\n\tfunction triMulticallChi(bytes[] calldata calls) external discountCHI{\r\n\t\tfor (uint i = 0; i < calls.length; i++) {\r\n\t\t\tgetTriOpportunityFromCall(calls[i]);\r\n\t\t}\r\n  \t}\r\n\r\n\tfunction simpleMulticall(bytes[] calldata calls) external{\r\n\t\tfor (uint i = 0; i < calls.length; i++) {\r\n\t\t\tgetOpportunityFromCall(calls[i]);\r\n\t\t}\r\n  \t}\r\n\r\n\tfunction triMulticall(bytes[] calldata calls) external{\r\n\t\tfor (uint i = 0; i < calls.length; i++) {\r\n\t\t\tgetTriOpportunityFromCall(calls[i]);\r\n\t\t}\r\n  \t}\r\n\r\n\tfunction getOpportunityFromCall(\r\n\t\tbytes memory call\r\n\t) internal{\r\n\t\tSimpleCall memory params = abi.decode(call, (SimpleCall));\r\n\t\tOpportunity memory opp = getSimpleOpportunity(params);\r\n\t\tif(opp.outputWei > opp.inputWei){\r\n\t\t\ttry TriArbNoRD(execContract).initiateTrade(abi.encode(opp.outerToken, opp.innerToken, opp.innerToken, opp.awayPool, opp.returnPool, opp.returnPool, opp.inputWei, opp.innerWei, opp.outputWei, 0)){}\r\n\t\t\tcatch Error(string memory reason){\r\n\t\t\t\temit ErrorHandled(reason);\r\n\t\t\t}catch{\r\n\t\t\t\temit ErrorHandled('Caught with no error');\r\n\t\t\t}\r\n\t\t}\r\n\t\tdelete opp;\r\n\t\tdelete params;\r\n\t}\r\n\r\n\tfunction getTriOpportunityFromCall(\r\n\t\tbytes memory call\r\n\t) internal{\r\n\t\tTriCall memory params = abi.decode(call, (TriCall));\r\n\t\tTriOpportunity memory opp = getTriOpportunity(params);\r\n\t\tif(opp.output3 > opp.input1){\r\n\t\t\ttry TriArbNoRD(execContract).initiateTrade(abi.encode(opp.token1, opp.token2, opp.token3, opp.pool1, opp.pool2, opp.pool3, opp.input1, opp.output1, opp.output2, opp.output3)){}\r\n\t\t\tcatch Error(string memory reason){\r\n\t\t\t\temit ErrorHandled(reason);\r\n\t\t\t}catch{\r\n\t\t\t\temit ErrorHandled('Caught with no error');\r\n\t\t\t}\r\n\t\t}\r\n\t\tdelete opp;\r\n\t\tdelete params;\r\n\t}\r\n\r\n\tfunction getOptimalInfo(OptimalInfo memory info) internal view returns (OptimalInfo memory optimalInfo) {\r\n\t\t//Get pool address, if it doesnt exist, return empty info which causes exit \r\n\t\tinfo.poolAddress = IUniswapV2Factory(info.factory).getPair(info.tokenIn, info.tokenOut);\r\n\t\tif(info.poolAddress == address(0)){\r\n\t\t\treturn info;\r\n\t\t}\r\n\r\n\t\t{\r\n\t\t\t//Get reserves for tokenIn and tokenOut and orders them correctly.\r\n\t\t\t(address tokenA, ) = sortTokens(info.tokenIn, info.tokenOut);\r\n\t\t\t(uint112 reserveA, uint112 reserveB, )  = IUniswapV2Pair(info.poolAddress).getReserves();\r\n\t\t\t(info.reserveIn, info.reserveOut) = info.tokenIn == tokenA ? (reserveA, reserveB) : (reserveB, reserveA); //Get reserve order\r\n\t\t\tdelete tokenA;\r\n\t\t\tdelete reserveA;\r\n\t\t\tdelete reserveB;\r\n\t\t}\r\n\r\n\t\treturn info;\r\n\t}\r\n\r\n\tfunction getImbalance(\r\n\t\tuint256 reserve1A, \r\n\t\tuint256 reserve1B,\r\n\t\tuint256 reserve2A,\r\n\t\tuint256 reserve2B\r\n\t) internal pure returns (bytes16) {\r\n\t\tbytes16 numerator = ABDKFloat.mul(ABDKFloat.fromUInt(reserve2A), ABDKFloat.fromUInt(reserve1B));\r\n\t\tbytes16 denom = ABDKFloat.mul(ABDKFloat.fromUInt(reserve2B), ABDKFloat.fromUInt(reserve1A));\r\n\t\treturn ABDKFloat.sub(ABDKFloat.div(numerator, denom), ABDKFloat.fromUInt(1));\r\n\t}\r\n\r\n\tfunction getSimpleTradeIterator(\r\n\t\tOptimalInfo memory awayInfo,\r\n\t\tOptimalInfo memory returnInfo,\r\n\t\tSimpleCall memory params,\r\n\t\tbytes16 initImbalance\r\n\t) internal view returns (\r\n\t\tuint256 input,\r\n\t\tuint256 out1in2,\r\n\t\tuint256 output\r\n\t) {\r\n\t\tbytes16 targetImbalance = ABDKFloat.div(ABDKFloat.fromUInt(params.swapFeeSum), ABDKFloat.fromUInt(10000));\r\n\t\tinput = awayInfo.reserveIn > INPUT_STEP_DIVISOR ? awayInfo.reserveIn / INPUT_STEP_DIVISOR : 1000;\r\n\t\tout1in2 = IUniswapV2Router02(params.exchange1).getAmountOut(input, awayInfo.reserveIn, awayInfo.reserveOut);\r\n\t\toutput = out1in2 > 0 ? IUniswapV2Router02(params.exchange2).getAmountOut(out1in2, returnInfo.reserveIn, returnInfo.reserveOut) : 0;\r\n\t\tif (output == 0) {\r\n\t\t\treturn (0, 0, 0);\r\n\t\t}\r\n\t\tbytes16 postStepImbalance = getImbalance(\r\n\t\t\tawayInfo.reserveIn + input,\r\n\t\t\tawayInfo.reserveOut - out1in2,\r\n\t\t\treturnInfo.reserveOut - output,\r\n\t\t\treturnInfo.reserveIn + out1in2\r\n\t\t);\r\n\t\tfor (uint i = 0; i < MAX_ITERATIONS; i++) {\r\n\t\t\tinput = ABDKFloat.toUInt(\r\n\t\t\t\tABDKFloat.mul(\r\n\t\t\t\t\tABDKFloat.sub(initImbalance, targetImbalance),\r\n\t\t\t\t\tABDKFloat.div(ABDKFloat.fromUInt(input), ABDKFloat.sub(initImbalance, postStepImbalance))\r\n\t\t\t\t)\r\n\t\t\t);\r\n\t\t\tout1in2 = input > 0 ? IUniswapV2Router02(params.exchange1).getAmountOut(input, awayInfo.reserveIn, awayInfo.reserveOut) : 0;\r\n\t\t\toutput = out1in2 > 0 ? IUniswapV2Router02(params.exchange2).getAmountOut(out1in2, returnInfo.reserveIn, returnInfo.reserveOut) : 0;\r\n\t\t\tif (output == 0) {\r\n\t\t\t\treturn (0, 0, 0);\r\n\t\t\t}\r\n\t\t\tpostStepImbalance = getImbalance(\r\n\t\t\t\tawayInfo.reserveIn + input,\r\n\t\t\t\tawayInfo.reserveOut - out1in2,\r\n\t\t\t\treturnInfo.reserveOut - output,\r\n\t\t\t\treturnInfo.reserveIn + out1in2\r\n\t\t\t);\r\n\t\t\tif (ABDKFloat.cmp(ITERATOR_THRESHOLD, ABDKFloat.abs(ABDKFloat.sub(postStepImbalance, targetImbalance))) == 1) {\r\n\t\t\t\tdelete targetImbalance;\r\n\t\t\t\tdelete postStepImbalance;\r\n\t\t\t\treturn (input, out1in2, output);\r\n\t\t\t}\r\n\t\t}\r\n\t\tdelete targetImbalance;\r\n\t\tdelete postStepImbalance;\r\n\t\treturn (input, out1in2, output);\r\n\t}\r\n\r\n\tfunction getSimpleOpportunity(\r\n\t\tSimpleCall memory params\r\n\t\t//uint256 portion\r\n\t) internal view returns (Opportunity memory) {\r\n\t\tOptimalInfo memory awayInfo = OptimalInfo(\r\n\t\t\tparams.outerToken, // tokenIn\r\n\t\t\tparams.innerToken, // tokenOut\r\n\t\t\t0, // input\r\n\t\t\t0, // output\r\n\t\t\t0, // reserveIn \r\n\t\t\t0, // reserveOut\r\n\t\t\taddress(0), // poolAddress\r\n\t\t\tIUniswapV2Router02(params.exchange1).factory()\r\n\t\t);\r\n\t\tOptimalInfo memory returnInfo = OptimalInfo(\r\n\t\t\tparams.innerToken, // tokenIn\r\n\t\t\tparams.outerToken, // tokenOut\r\n\t\t\t0, // optimalInput\r\n\t\t\t0, // optimalOutput\r\n\t\t\t0, // reserveIn \r\n\t\t\t0, // reserveOut\r\n\t\t\taddress(0), // poolAddress\r\n\t\t\tIUniswapV2Router02(params.exchange2).factory()\r\n\t\t);\r\n\t\tawayInfo = getOptimalInfo(awayInfo);\r\n\r\n\t\tif(awayInfo.reserveIn <= 0 || awayInfo.reserveOut <= 0){\r\n\t\t\treturn Opportunity(\r\n\t\t\t\tawayInfo.tokenIn, \r\n\t\t\t\tawayInfo.tokenOut, \r\n\t\t\t\tawayInfo.poolAddress,\r\n\t\t\t\treturnInfo.poolAddress,\r\n\t\t\t\tawayInfo.input,\r\n\t\t\t\tawayInfo.output,\r\n\t\t\t\t0\r\n\t\t\t);\r\n\t\t}\r\n\r\n\t\treturnInfo = getOptimalInfo(returnInfo);\r\n\r\n\t\tif(returnInfo.reserveIn <= 0 || returnInfo.reserveOut <= 0){\r\n\t\t\treturn Opportunity(\r\n\t\t\t\tawayInfo.tokenIn, \r\n\t\t\t\tawayInfo.tokenOut, \r\n\t\t\t\tawayInfo.poolAddress,\r\n\t\t\t\treturnInfo.poolAddress,\r\n\t\t\t\tawayInfo.input,\r\n\t\t\t\tawayInfo.output,\r\n\t\t\t\t0\r\n\t\t\t);\r\n\t\t}\r\n\r\n\t\tbytes16 imbalance = getImbalance(\r\n\t\t\tawayInfo.reserveIn,\r\n\t\t\tawayInfo.reserveOut,\r\n\t\t\treturnInfo.reserveOut,\r\n\t\t\treturnInfo.reserveIn\r\n\t\t);\r\n\r\n\t\tif (ABDKFloat.cmp(imbalance, ABDKFloat.div(ABDKFloat.fromUInt(params.swapFeeSum), ABDKFloat.fromUInt(10000))) != 1) {\r\n\t\t\treturn Opportunity(\r\n\t\t\t\tawayInfo.tokenIn, \r\n\t\t\t\tawayInfo.tokenOut, \r\n\t\t\t\tawayInfo.poolAddress,\r\n\t\t\t\treturnInfo.poolAddress,\r\n\t\t\t\tawayInfo.input,\r\n\t\t\t\tawayInfo.output,\r\n\t\t\t\t0\r\n\t\t\t);\r\n\t\t}\r\n\r\n\t\t(awayInfo.input, awayInfo.output, returnInfo.output) = getSimpleTradeIterator(awayInfo, returnInfo, params, imbalance);\r\n\r\n\t\treturn Opportunity(\r\n\t\t\tawayInfo.tokenIn, \r\n\t\t\tawayInfo.tokenOut, \r\n\t\t\tawayInfo.poolAddress,\r\n\t\t\treturnInfo.poolAddress,\r\n\t\t\tawayInfo.input,\r\n\t\t\tawayInfo.output,\r\n\t\t\treturnInfo.output\r\n\t\t);\r\n\t}\r\n\r\n\tfunction getTriImbalance(\r\n\t\tuint256 reserve1A, \r\n\t\tuint256 reserve1B,\r\n\t\tuint256 reserve2B,\r\n\t\tuint256 reserve2C,\r\n\t\tuint256 reserve3C,\r\n\t\tuint256 reserve3A\r\n\t) internal pure returns (bytes16) {\r\n\t\tbytes16 mpBA = ABDKFloat.div(ABDKFloat.fromUInt(reserve1B), ABDKFloat.fromUInt(reserve1A));\r\n\t\tbytes16 mpCB = ABDKFloat.div(ABDKFloat.fromUInt(reserve2C), ABDKFloat.fromUInt(reserve2B));\r\n\t\tbytes16 mpAC = ABDKFloat.div(ABDKFloat.fromUInt(reserve3A), ABDKFloat.fromUInt(reserve3C));\r\n\t\treturn ABDKFloat.sub(ABDKFloat.mul(ABDKFloat.mul(mpBA, mpCB), mpAC), ABDKFloat.fromUInt(1));\r\n\t}\r\n\r\n\tfunction getTriTradeIterator(\r\n\t\tTriIteratorInputs memory inputs\r\n\t) internal view returns (uint256 input, uint256 out1in2, uint256 out2in3, uint256 output) {\r\n\t\tinput = inputs.info1.reserveIn > INPUT_STEP_DIVISOR ? inputs.info1.reserveIn / INPUT_STEP_DIVISOR : 1000;\r\n\t\tout1in2 = IUniswapV2Router02(inputs.params.exchange1).getAmountOut(input, inputs.info1.reserveIn, inputs.info1.reserveOut);\r\n\t\tout2in3 = out1in2 > 0 ? IUniswapV2Router02(inputs.params.exchange2).getAmountOut(out1in2, inputs.info2.reserveIn, inputs.info2.reserveOut) : 0;\r\n\t\toutput = out2in3 > 0 ? IUniswapV2Router02(inputs.params.exchange3).getAmountOut(out2in3, inputs.info3.reserveIn, inputs.info3.reserveOut) : 0;\r\n\t\tif (output == 0) {\r\n\t\t\treturn (0, 0, 0, 0);\r\n\t\t}\r\n\t\tIter memory iter = Iter(\r\n\t\t\t0, // iterator\r\n\t\t\tABDKFloat.div(ABDKFloat.fromUInt(inputs.params.swapFeeSum), ABDKFloat.fromUInt(10000)), // target imbalance\r\n\t\t\tgetTriImbalance(\r\n\t\t\t\tinputs.info1.reserveIn + input,\r\n\t\t\t\tinputs.info1.reserveOut - out1in2,\r\n\t\t\t\tinputs.info2.reserveIn + out1in2,\r\n\t\t\t\tinputs.info2.reserveOut - out2in3,\r\n\t\t\t\tinputs.info3.reserveIn + out2in3,\r\n\t\t\t\tinputs.info3.reserveOut - output\r\n\t\t\t) // post step imbalance\r\n\t\t);\r\n\t\tfor (iter.iterator = 0; iter.iterator < MAX_ITERATIONS; iter.iterator++) {\r\n\t\t\tinput = ABDKFloat.toUInt(\r\n\t\t\t\tABDKFloat.mul(\r\n\t\t\t\t\tABDKFloat.sub(inputs.initImbalance, iter.targetImbalance),\r\n\t\t\t\t\tABDKFloat.div(ABDKFloat.fromUInt(input), ABDKFloat.sub(inputs.initImbalance, iter.postStepImbalance))\r\n\t\t\t\t)\r\n\t\t\t);\r\n\t\t\tout1in2 = input > 0 ? IUniswapV2Router02(inputs.params.exchange1).getAmountOut(input, inputs.info1.reserveIn, inputs.info1.reserveOut) : 0;\r\n\t\t\tout2in3 = out1in2 > 0 ? IUniswapV2Router02(inputs.params.exchange2).getAmountOut(out1in2, inputs.info2.reserveIn, inputs.info2.reserveOut) : 0;\r\n\t\t\toutput = out2in3 > 0 ? IUniswapV2Router02(inputs.params.exchange3).getAmountOut(out2in3, inputs.info3.reserveIn, inputs.info3.reserveOut) : 0;\r\n\t\t\tif (output == 0) {\r\n\t\t\t\treturn (0, 0, 0, 0);\r\n\t\t\t}\r\n\t\t\titer.postStepImbalance = getTriImbalance(\r\n\t\t\t\tinputs.info1.reserveIn + input,\r\n\t\t\t\tinputs.info1.reserveOut - out1in2,\r\n\t\t\t\tinputs.info2.reserveIn + out1in2,\r\n\t\t\t\tinputs.info2.reserveOut - out2in3,\r\n\t\t\t\tinputs.info3.reserveIn + out2in3,\r\n\t\t\t\tinputs.info3.reserveOut - output\r\n\t\t\t);\r\n\t\t\tif (ABDKFloat.cmp(ITERATOR_THRESHOLD, ABDKFloat.abs(ABDKFloat.sub(iter.postStepImbalance, iter.targetImbalance))) == 1) {\r\n\t\t\t\tdelete iter;\r\n\t\t\t\treturn (input, out1in2, out2in3, output);\r\n\t\t\t}\r\n\t\t}\r\n\t\tdelete iter;\r\n\t\treturn (input, out1in2, out2in3, output);\r\n\t}\r\n\r\n\tfunction getTriOpportunity (\r\n\t\tTriCall memory params\r\n\t) internal view returns (TriOpportunity memory) {\r\n\t\tOptimalInfo memory info1 = OptimalInfo(\r\n\t\t\tparams.token1, // tokenIn\r\n\t\t\tparams.token2, // tokenOut\r\n\t\t\t0, // optimalInput\r\n\t\t\t0, // optimalOutput\r\n\t\t\t0, // reserveIn \r\n\t\t\t0, // reserveOut\r\n\t\t\taddress(0), // poolAddress\r\n\t\t\tIUniswapV2Router02(params.exchange1).factory()\r\n\t\t);\r\n\t\t\r\n\t\tOptimalInfo memory info2 = OptimalInfo(\r\n\t\t\tparams.token2, // tokenIn\r\n\t\t\tparams.token3, // tokenOut\r\n\t\t\t0, // input\r\n\t\t\t0, // output\r\n\t\t\t0, // reserveIn \r\n\t\t\t0, // reserveOut\r\n\t\t\taddress(0), // poolAddress\r\n\t\t\tIUniswapV2Router02(params.exchange2).factory()\r\n\t\t);\r\n\t\t\r\n\t\tOptimalInfo memory info3 = OptimalInfo(\r\n\t\t\tparams.token3, // tokenIn\r\n\t\t\tparams.token1, // tokenOut\r\n\t\t\t0, // optimalInput\r\n\t\t\t0, // optimalOutput\r\n\t\t\t0, // reserveIn \r\n\t\t\t0, // reserveOut\r\n\t\t\taddress(0), // poolAddress\r\n\t\t\tIUniswapV2Router02(params.exchange3).factory()\r\n\t\t);\r\n\r\n\t\tinfo1 = getOptimalInfo(info1);\r\n\r\n\t\tif(info1.reserveIn <= 0 || info1.reserveOut <= 0){\r\n\t\t\treturn TriOpportunity(\r\n\t\t\t\tinfo1.tokenIn, \r\n\t\t\t\tinfo1.tokenOut, \r\n\t\t\t\tinfo2.tokenOut,\r\n\t\t\t\tinfo1.poolAddress, \r\n\t\t\t\tinfo2.poolAddress, \r\n\t\t\t\tinfo3.poolAddress, \r\n\t\t\t\tinfo1.input, \r\n\t\t\t\tinfo1.output, \r\n\t\t\t\tinfo2.output, \r\n\t\t\t\t0\r\n\t\t\t);\r\n\t\t}\r\n\r\n\t\tinfo2 = getOptimalInfo(info2);\r\n\r\n\t\tif(info2.reserveIn <= 0 || info2.reserveOut <= 0){\r\n\t\t\treturn TriOpportunity(\r\n\t\t\t\tinfo1.tokenIn, \r\n\t\t\t\tinfo1.tokenOut, \r\n\t\t\t\tinfo2.tokenOut,\r\n\t\t\t\tinfo1.poolAddress, \r\n\t\t\t\tinfo2.poolAddress, \r\n\t\t\t\tinfo3.poolAddress, \r\n\t\t\t\tinfo1.input, \r\n\t\t\t\tinfo1.output, \r\n\t\t\t\tinfo2.output, \r\n\t\t\t\t0\r\n\t\t\t);\r\n\t\t}\r\n\r\n\t\tinfo3 = getOptimalInfo(info3);\r\n\r\n\t\tif(info3.reserveIn <= 0 || info3.reserveOut <= 0){\r\n\t\t\treturn TriOpportunity(\r\n\t\t\t\tinfo1.tokenIn, \r\n\t\t\t\tinfo1.tokenOut, \r\n\t\t\t\tinfo2.tokenOut,\r\n\t\t\t\tinfo1.poolAddress, \r\n\t\t\t\tinfo2.poolAddress, \r\n\t\t\t\tinfo3.poolAddress, \r\n\t\t\t\tinfo1.input, \r\n\t\t\t\tinfo1.output, \r\n\t\t\t\tinfo2.output, \r\n\t\t\t\t0\r\n\t\t\t);\r\n\t\t}\r\n\r\n\t\tbytes16 imbalance = getTriImbalance(\r\n\t\t\tinfo1.reserveIn, info1.reserveOut,\r\n\t\t\tinfo2.reserveIn, info2.reserveOut,\r\n\t\t\tinfo3.reserveIn, info3.reserveOut\r\n\t\t);\r\n\r\n\t\tif (ABDKFloat.cmp(imbalance, ABDKFloat.div(ABDKFloat.fromUInt(params.swapFeeSum), ABDKFloat.fromUInt(10000))) != 1) {\r\n\t\t\treturn TriOpportunity(\r\n\t\t\t\tinfo1.tokenIn, \r\n\t\t\t\tinfo1.tokenOut, \r\n\t\t\t\tinfo2.tokenOut,\r\n\t\t\t\tinfo1.poolAddress, \r\n\t\t\t\tinfo2.poolAddress, \r\n\t\t\t\tinfo3.poolAddress, \r\n\t\t\t\tinfo1.input, \r\n\t\t\t\tinfo1.output, \r\n\t\t\t\tinfo2.output, \r\n\t\t\t\t0\r\n\t\t\t);\r\n\t\t}\r\n\r\n\t\t(info1.input, info1.output, info2.output, info3.output) = getTriTradeIterator(TriIteratorInputs(params, imbalance, info1, info2, info3));\r\n\t\t\r\n\t\treturn TriOpportunity(\r\n\t\t\tinfo1.tokenIn, info1.tokenOut, info2.tokenOut,\r\n\t\t\tinfo1.poolAddress, info2.poolAddress, info3.poolAddress, \r\n\t\t\tinfo1.input, info1.output, info2.output, info3.output\r\n\t\t);\r\n\t}\r\n\r\n\tfunction sortTokens(address tokenIn, address tokenOut)\r\n\t\t\tinternal\r\n\t\t\tpure\r\n\t\t\treturns (address tokenA, address tokenB)\r\n\t{\r\n\t\t\trequire(tokenIn != tokenOut, \"UniswapV2Library: IDENTICAL_ADDRESSES\");\r\n\t\t\t(tokenA, tokenB) = tokenIn < tokenOut\r\n\t\t\t\t\t? (tokenIn, tokenOut)\r\n\t\t\t\t\t: (tokenOut, tokenIn);\r\n\t\t\trequire(tokenA != address(0), \"UniswapV2Library: ZERO_ADDRESS\");\r\n\t}\r\n\t\r\n\tfallback() external payable {}\r\n\r\n\treceive() external payable {}\r\n}\r\n",
	"sourcePath": "C:/Users/Paul/Desktop/cryptoarb/branches/master/contracts/DEX-Arbitrage/contracts/Opportunity/OptimizerTrade.sol",
	"compiler": {
		"name": "solc",
		"version": "0.7.4+commit.3f05b770.Emscripten.clang"
	},
	"schemaVersion": "3.3.1",
	"updatedAt": "2021-06-29T00:09:33.436Z",
	"networkType": "ethereum",
	"devdoc": {
		"kind": "dev",
		"methods": {},
		"version": 1
	},
	"userdoc": {
		"kind": "user",
		"methods": {},
		"version": 1
	}
}